:100000000C947D000C94A5000C94A5000C94A50004
:100010000C94A5000C94A5000C94A5000C94A500CC
:100020000C94A5000C94A5000C94A5000C94E3037B
:100030000C94A5000C94A5000C94A5000C94A500AC
:100040000C94FE0A0C94A5000C9419070C944B0711
:100050000C94A5000C94A5000C94A5000C94A5008C
:100060000C94A5000C94A5004E414E494E4954599C
:10007000494E46CDCCCC3D0AD7233C17B7D1387773
:10008000CC2B329595E6241FB14F0A000020410089
:1000900000C84200401C4620BCBE4CCA1B0E5AAED3
:1000A000C59D740000000800020100000304070061
:1000B0000000000000000001020408102040800140
:1000C000020408102001020408102004040404049F
:1000D00004040402020202020203030303030300F6
:1000E000000000250028002B00000000002400274D
:1000F000002A00003D037B07530311241FBECFEFEE
:10010000D8E0DEBFCDBF11E0A0E0B1E0E0E7F4E26F
:1001100002C005900D92A036B107D9F722E0A0E603
:10012000B1E001C01D92A734B207E1F710E0CCE7BF
:10013000D0E004C02197FE010E94EA0CCA37D10723
:10014000C9F70E94EF0A0C942B120C94000061E096
:1001500088E00E94530C60E084E00E94530C61E050
:1001600087E00E94530C60E088E00C94530C8130CF
:1001700019F0823019F008950C94A70060E088E02F
:100180000E94530C61E084E00E94530C60E087E021
:100190000E94530C61E088E00C94530CCF93C62F5F
:1001A000682F70E088E00E948F0B6C2F70E085E074
:1001B000CF910C948F0B682F70E082E791E00C9444
:1001C0007C05682F70E082E791E00C944005CF92A7
:1001D000DF92EF92FF920F931F93CF93DF9300D0A4
:1001E00000D000D0CDB7DEB77C018B01BA01C801C9
:1001F0000E943A0A97FD21C0AC016AE3C8010E943F
:10020000010A01966C01AC016BE3C8010E94010A6E
:100210009C01A601B801CE0101960E943E0ACE01C2
:1002200001960E94830ABE016F5F7F4FC7010E9443
:100230004009CE0101960E94A608C70126960FB676
:10024000F894DEBF0FBECDBFDF91CF911F910F910C
:10025000FF90EF90DF90CF900895CF93DF93EC0164
:1002600060E070E00E94E209811115C06CE671E067
:10027000CE010E94D109811110C066E671E0CE0165
:100280000E94D10981110BC060E671E0CE010E948D
:10029000D109811106C080E005C081E003C082E081
:1002A00001C083E0DF91CF910895CF93DF93EC01FC
:1002B00060E070E00E94E209811105C0CE01DF918B
:1002C000CF910C94E30A60E070E0CB01DF91CF9115
:1002D00008950F931F93CF93DF93CDB7DEB7A99700
:1002E0000FB6F894DEBF0FBECDBF8C0166E071E0A3
:1002F000CE0149960E941409B801CE014F960E9482
:100300004009AE01475E5F4FBE01615E7F4FCE0187
:1003100043960E94E700CE0143960E942D018DA3D3
:1003200069E071E0CE0107960E941409B801CE0180
:100330000D960E944009AE01495F5F4FBE01635FA9
:100340007F4FCE0101960E94E700CE0101960E94E8
:1003500055016EA37FA388A799A7CE0101960E949D
:10036000A608CE010D960E94A608CE0107960E940F
:10037000A608CE0143960E94A608CE014F960E9481
:10038000A608CE0149960E94A6082DA13EA14FA124
:1003900058A569A570E080E090E0A9960FB6F894A2
:1003A000DEBF0FBECDBFDF91CF911F910F9108959A
:1003B0004F925F926F927F92AF92BF92CF92DF92F5
:1003C000EF92FF920F931F93CF93DF9300D000D053
:1003D0001F92CDB7DEB75A836B837C838D834A80AF
:1003E0005B806C807D8020E030E0A901C301B20118
:1003F0000E94FF0C882381F1C301B2010E94040D09
:100400002B013C011F921F921F928FEF8F93A12C03
:10041000B12C650114E6E12EF12C00E010E02CE98E
:100420003FEF4FEF5FEFC301B2010E946508162F47
:100430000F900F900F900F901414150416041704CA
:1004400014F082E001C081E00E94B700612F812F8B
:100450000E94CE0081E001C080E00F900F900F90CD
:100460000F900F90DF91CF911F910F91FF90EF9020
:10047000DF90CF90BF90AF907F906F905F904F9044
:100480000895AF92BF92CF92DF92EF92FF920F93B7
:100490001F93CF93DF9300D000D01F92CDB7DEB76C
:1004A0005A836B837C838D83CA80DB80EC80FD80E4
:1004B00020E030E0A901C701B6010E94FF0C8823AB
:1004C00001F1C701B6010E94040D1F921F921F92F5
:1004D00024EB2F93A12CB12C650114E6E12EF12C15
:1004E00000E010E02CE93FEF4FEF5FEF0E9465085E
:1004F000862F0E94DB000F900F900F900F9081E0ED
:1005000001C080E00F900F900F900F900F90DF913F
:10051000CF911F910F91FF90EF90DF90CF90BF9000
:10052000AF900895CF92DF92EF92FF92CF93DF9337
:1005300000D000D01F92CDB7DEB75A836B837C8387
:100540008D83CA80DB80EC80FD8020E030E0A90153
:10055000C701B6010E94FF0C882371F0C701B601E4
:100560000E940B0D81E0613009F080E0682F8DE082
:100570000E94530C81E001C080E00F900F900F901B
:100580000F900F90DF91CF91FF90EF90DF90CF9081
:100590000895CF93DF9300D000D01F92CDB7DEB780
:1005A0005A836B837C838D83423069F04330C9F07A
:1005B000413029F50F900F900F900F900F90DF9121
:1005C000CF910C94D80142E05A816B817C818D815E
:1005D0000F900F900F900F900F90DF91CF910C9490
:1005E000410243E05A816B817C818D810F900F9095
:1005F0000F900F900F90DF91CF910C94920280E0BA
:100600000F900F900F900F900F90DF91CF91089562
:1006100026E040E855E260E070E08BE991E00E945E
:10062000B40661E088E00E94170C61E084E00E945B
:10063000170C61E087E00E94170C61E088E00E94DF
:10064000170C61E088E00E94170C61E085E00E94D1
:10065000170C0E94A70061E08BE00E94170C8BE052
:100660000E94E1008AE50E94DB0061E08DE00E94CB
:10067000170C60E08DE00C94530C82E791E00E942F
:10068000A40469E171E08CE691E00E9414096CE039
:1006900071E086E691E00E9414096EE071E080E668
:1006A00091E00C94140980E691E00E94A60886E689
:1006B00091E00E94A6088CE691E00C94A6081F9396
:1006C000CF93DF93CDB7DEB761970FB6F894DEBF57
:1006D0000FBECDBF8BE991E00E94D8051816190610
:1006E0000CF067C04AE06BE971E0CE0107960E940A
:1006F0003D08BE01695F7F4FCE0101960E9440090F
:10070000CE0101960E9469012D873E874F87588B45
:10071000698BCE0101960E94A6084D85442371F194
:100720005E856F85788989890E94C902182F6BE1DF
:1007300071E08BE991E00E94F507BE01695F7F4F90
:100740008BE991E00E94E7078BE991E00E94F707AF
:1007500063E271E08BE991E00E94F507111103C09B
:1007600065E171E002C060E171E08BE991E00E9417
:10077000F5078BE991E00E94F70717C06BE171E084
:100780008BE991E00E94F507BE01695F7F4F8BE91D
:1007900091E00E94E7078BE991E00E94F7076DE284
:1007A00071E08BE991E00E94FB07CE0107960E9461
:1007B000A60861960FB6F894DEBF0FBECDBFDF91DD
:1007C000CF911F9108951F920F920FB60F9211248F
:1007D0002F933F934F935F936F937F938F939F9349
:1007E000AF93BF93EF93FF938091760187FF05C08E
:1007F00010928500109284001BC020917601022E79
:10080000000C330B8091750190E02817390784F4B0
:1008100080917601082E000C990BFC01EE0FFF1F52
:100820008E0F9F1FFC01E958FE4F808186FD15C089
:10083000809176018F5F8093760120917601022E60
:10084000000C330B8091750190E028173907C4F430
:10085000809176018C3064F113C080917601082E6E
:10086000000C990BFC01EE0FFF1F8E0F9F1FFC0168
:10087000E958FE4F808160E08F730E94530CD8CFFF
:100880008091840090918500049680349C4918F4EE
:1008900080E49CE905C080918400909185000496D5
:1008A00090938900809388008FEF809376013BC0FE
:1008B000209184003091850080917601082E000CF3
:1008C000990BFC01EE0FFF1F8E0F9F1FFC01E958D3
:1008D000FE4F81819281820F931F909389008093B4
:1008E000880080917601082E000C990BFC01EE0F18
:1008F000FF1F8E0F9F1FFC01E958FE4F808186FF6E
:1009000012C080917601082E000C990BFC01EE0FAD
:10091000FF1F8E0F9F1FFC01E958FE4F808161E091
:100920008F730E94530CFF91EF91BF91AF919F91F4
:100930008F917F916F915F914F913F912F910F9088
:100940000FBE0F901F901895FC01909175019C307F
:10095000A0F481E0890F809375019083892F90E046
:10096000FC01EE0FFF1F8E0F9F1FFC01E958FE4F89
:1009700088EB9BE09283818308958FEF80830895B5
:10098000DF92EF92FF920F931F93CF93DF93EC01CF
:10099000D62E7A01890188818C3008F068C061E028
:1009A0008D2D0E94170C8881E82FF0E09F01220F07
:1009B000331FE20FF31FE958FE4F9D2D9F732081D7
:1009C000207CD22ED92AD08220E232E02E193F0993
:1009D00037FF02C02D5F3F4F3595279535952795F9
:1009E000298320E639E0201B310B37FF02C02D5F41
:1009F0003F4F35952795359527952A836CE00E94C2
:100A0000920C9CE0899FB001112440E050E09B01D2
:100A1000240F351FF901EE0FFF1F2E0F3F1FF901A5
:100A2000E958FE4F908196FD16C04F5F5F4F4C30E6
:100A3000510569F781110FC01092800082E0809308
:100A400081001092850010928400B19A80916F000D
:100A5000826080936F00E881F0E0CF01880F991FDA
:100A6000E80FF91FE958FE4F8081806480838881F8
:100A7000DF91CF911F910F91FF90EF90DF9008953C
:100A800020E639E040E252E00C94C004FC01908181
:100A90009C3088F5818128E830E0281B310987FDEA
:100AA0003395220F331F220F331F6217730784F011
:100AB000828148E552E0481B510987FD5395440F58
:100AC000551F440F551F9B01461757070CF49A01F9
:100AD00022503109220F331F4FB7F894892F90E02D
:100AE000FC01EE0FFF1F8E0F9F1FFC01E958FE4F08
:100AF000328321834FBF0895AF92BF92CF92DF928E
:100B0000EF92FF920F931F93CF93DF93EC0160322C
:100B100082E078070CF03FC077FD06C0653B7105A9
:100B20002CF064EB70E002C060E070E0898128E89E
:100B300030E05901A81AB10887FDB394AA0CBB1C78
:100B4000AA0CBB1C0B2C000CCC08DD08072E000CDB
:100B5000880B990B2A8108E512E0021B110927FD79
:100B60001395000F111F000F111F012E000C220BF7
:100B7000330B3F932F931F930F9314EBE12EF12C24
:100B800000E010E020E030E0A9010E9465080F902D
:100B90000F900F900F90CE01DF91CF911F910F9189
:100BA000FF90EF90DF90CF90BF90AF900C944605F0
:100BB000FC01918D228D892F90E0805C9F4F821BDC
:100BC00091098F7399270895FC01918D828D981753
:100BD00031F0828DE80FF11D858D90E008958FEF43
:100BE0009FEF0895FC01918D828D981761F0828DA1
:100BF000DF01A80FB11D5D968C91928D9F5F9F7351
:100C0000928F90E008958FEF9FEF0895FC01538D30
:100C1000448D252F30E0842F90E0821B930B5417D6
:100C200010F0CF9608950197089581E797E0892BFA
:100C300049F080E090E0892B29F00E947107811132
:100C40000C9400000895FC01848DDF01A80FB11DF4
:100C5000A35ABF4F2C91848D90E001968F739927F2
:100C6000848FA689B7892C93A089B1898C918370D0
:100C700080648C93938D848D981306C00288F389C9
:100C8000E02D80818F7D80830895EF92FF920F93F6
:100C90001F93CF93DF93EC0181E0888F9B8D8C8D28
:100CA000981305C0E889F989808185FD26C0F62E54
:100CB0000B8D10E00F5F1F4F0F731127E02E8C8DEF
:100CC000E8120CC00FB607FCFACFE889F9898081D9
:100CD00085FFF5CFCE010E942306F1CF8B8DFE015B
:100CE000E80FF11DE35AFF4FF0829FB7F8940B8F86
:100CF000EA89FB89808180620AC09FB7F894EE89F7
:100D0000FF896083E889F9898081837080648083AA
:100D10009FBF81E090E0DF91CF911F910F91FF90F5
:100D2000EF900895CF93DF93EC01888D8823C9F06D
:100D3000EA89FB89808185FD05C0A889B9898C91E4
:100D400086FD0FC00FB607FCF5CF808185FFF2CF7F
:100D5000A889B9898C9185FFEDCFCE010E94230629
:100D6000E7CFDF91CF910895CF92DF92EF92FF927C
:100D70001F93CF93DF93EC016A017B01122FE88967
:100D8000F98982E080834115514E61057105B1F00A
:100D900060E079E08DE390E0A70196010E949E0C4F
:100DA000DA01C9010197A109B109B695A7959795EF
:100DB00087959C01211580E13807A8F0E889F98919
:100DC000108260E874E88EE190E0A70196010E942D
:100DD0009E0CDA01C9010197A109B109B695A79541
:100DE000979587959C01EC85FD853083EE85FF8581
:100DF0002083188EEC89FD891083EA89FB89808124
:100E000080618083EA89FB89808188608083EA89A8
:100E1000FB89808180688083EA89FB8980818F7D5E
:100E20008083DF91CF911F91FF90EF90DF90CF9063
:100E300008951F920F920FB60F9211242F938F9344
:100E40009F93EF93FF93E091AB01F091AC01808110
:100E5000E091B101F091B20182FD12C090818091C8
:100E6000B4018F5F8F732091B501821751F0E0912B
:100E7000B401F0E0E556FE4F958F8093B40101C0B8
:100E80008081FF91EF919F918F912F910F900FBED5
:100E90000F901F9018951F920F920FB60F9211246A
:100EA0002F933F934F935F936F937F938F939F9372
:100EB000AF93BF93EF93FF938BE991E00E942306DA
:100EC000FF91EF91BF91AF919F918F917F916F9122
:100ED0005F914F913F912F910F900FBE0F901F90F8
:100EE00018958BE991E00E94D80521E0892B09F43F
:100EF00020E0822F0895EBE9F1E01382128288EE60
:100F000093E0A0E0B0E084839583A683B78382E476
:100F100091E09183808385EC90E09587848784ECD1
:100F200090E09787868780EC90E0918B808B81ECB6
:100F300090E0938B828B82EC90E0958B848B86EC97
:100F400090E0978B868B118E128E138E148E0895DF
:100F5000CF92DF92EF92FF920F931F93CF93DF9385
:100F60006C017A018B01C0E0D0E0CE15DF0581F085
:100F7000D8016D918D01D601ED91FC910190F08128
:100F8000E02DC6010995892B11F02196EECF7E0147
:100F9000C701DF91CF911F910F91FF90EF90DF90EC
:100FA000CF9008956115710579F0FB010190002043
:100FB000E9F73197AF01461B570BDC01ED91FC912E
:100FC0000280F381E02D099480E090E00895DB0138
:100FD00014964D915C9115976D917C91DC01ED918A
:100FE000FC910280F381E02D09940C94D20760E516
:100FF00071E00C94D2070F931F93CF93DF93EC0112
:101000000E94D2078C01CE010E94F707800F911F2A
:10101000DF91CF911F910F9108950F931F93CF935D
:10102000DF93EC010E94480B688779878A879B874A
:10103000E881F9810284F385E02DCE01099597FFBF
:1010400017C00E94480B088519852A853B85DC015D
:10105000CB01801B910BA20BB30B0C811D812E8148
:101060003F8180179107A207B30710F38FEF9FEF1F
:10107000DF91CF911F910F910895EF92FF920F93FF
:101080001F93CF93DF93EC017B01042F62E571E0A6
:101090000E941409C7010E940D08002E000C110BBC
:1010A00097FD0BC08017910741F0682FCE010E9479
:1010B0008E09C7010E940D08F3CFCE01DF91CF91B9
:1010C0001F910F91FF90EF9008954F925F926F9252
:1010D0007F92AF92BF92CF92DF92EF92FF920F93E7
:1010E0001F93CF93DF93CDB7DEB729013A019B0160
:1010F000AC01241935094609570989899A89AB89B0
:10110000BC89BC01CD016A197B098C099D090E942B
:10111000820CA801970124193509460957090E9434
:10112000C00CCA01B9016A0D7B1D8C1D9D1DDF918C
:10113000CF911F910F91FF90EF90DF90CF90BF90D4
:10114000AF907F906F905F904F900895FC018081E9
:1011500091810C94F10ECF93DF93EC0188819981FA
:10116000009711F00E94F10E198218821D821C82D4
:101170001B821A82DF91CF9108950F931F93CF9313
:10118000DF93EC018B016F5F7F4F888199810E9413
:101190007A0F009731F0998388831B830A8381E05B
:1011A00001C080E0DF91CF911F910F910895CF93FF
:1011B000DF93EC0188819981892B29F08A819B81B9
:1011C0008617970760F4CE010E94BD08882341F07E
:1011D0008C819D81892B19F4E881F981108281E04D
:1011E000DF91CF910895EF92FF920F931F93CF93CA
:1011F000DF93EC017B018A01BA010E94D7088111BB
:1012000004C0CE010E94AB0807C01D830C83B70148
:10121000888199810E946A10CE01DF91CF911F9140
:101220000F91FF90EF900895FC01118210821382BC
:101230001282158214826115710551F0FB01019033
:101240000020E9F73197AF01461B570B0C94F308C8
:101250000895CF93DF93EC01FB018617970761F0A8
:10126000608171816115710529F0448155810E9469
:10127000F30802C00E94AB08CE01DF91CF91089520
:10128000FC011182108213821282158214820C9446
:101290002909CF93DF93EC016115710559F0FB012A
:1012A00001900020E9F73197AF01461B570B0E94D0
:1012B000F30802C00E94AB08CE01DF91CF910895E0
:1012C000EF92FF920F931F93CF93DF9361157105F8
:1012D00011F480E01CC041155105C1F07B01EC0107
:1012E0008C819D818A01080F191FB801CE010E94CF
:1012F000D708882371F3288139818C819D81B701BA
:10130000820F931F0E946A101D830C8381E0DF917E
:10131000CF911F910F91FF90EF900895CF93DF939E
:1013200000D0CDB7DEB769831A8241E050E0BE013C
:101330006F5F7F4F0E9460090F900F90DF91CF91F8
:101340000895CF93DF93DC01ED91FC91EB01A8812F
:10135000B981309711F01097C9F4109759F0EB014B
:101360002C813D81232B31F08C9190E091958195DA
:10137000910914C0309781F0DC0114968D919C91F5
:101380001597892B49F0808190E008C0BD01CF01FD
:10139000DF91CF910C94611080E090E0DF91CF91CC
:1013A0000895FC0144815581FB0124813581421758
:1013B000530729F40E94A10921E0892B09F020E0BC
:1013C000822F0895FC0124813581232B31F421E003
:1013D00061157105A1F0FB0108C0FC0180819181BC
:1013E0006115710531F421E0FC018081882339F019
:1013F00005C00E94611021E0892B09F020E0822FB6
:101400000895CF93DF93FC01248135814217530760
:1014100078F4C081D181062E000C770BCE01840FA9
:10142000951F0E945610009719F08C1B9D0B02C04F
:101430008FEF9FEFDF91CF910895CF93DF93FC0162
:10144000248135814217530780F4FB01DC01CD91E3
:10145000DC9160817181CE01840F951F0E94711013
:10146000009719F08C1B9D0B02C08FEF9FEFDF914F
:10147000CF91089540E050E00C941D0ABF92CF92A6
:10148000DF92EF92FF920F931F93CF93DF937C0134
:101490006B018A01E9012417350720F4812F8901A6
:1014A000C42FD82F62E571E0C7010E941409D6014C
:1014B00014968D919C91159708171907C8F48C17ED
:1014C0009D0708F4EC01D601ED91FC911197EC0F0A
:1014D000FD1FB08010826D917C91600F711FC7015C
:1014E0000E944909D601ED91FC91EC0FFD1FB082DD
:1014F000C701DF91CF911F910F91FF90EF90DF9087
:10150000CF90BF900895AF92BF92CF92DF92EF92AB
:10151000FF920F931F93CF93DF93DC01CD90DC906C
:101520001197C114D10409F443C01496CD91DC91F4
:1015300015972097E9F18C0176015701BFEFAB1A9F
:10154000BB0AF7018081082E000C990B0E94441001
:10155000892B11F07501F1CF2197CC0DDD1D88810C
:10156000082E000C990B0E944410892B29F0CE15EF
:10157000DF0510F02197F3CFAE014F5F5F4F4E199B
:101580005F09D80115965C934E931497CE14DF042F
:1015900020F4B701C6010E944D10D801ED91FC91D5
:1015A000119714968D919C911597E80FF91F108251
:1015B000DF91CF911F910F91FF90EF90DF90CF902F
:1015C000BF90AF900895FC0180819181009711F048
:1015D0000C94401060E070E0CB01089508950E94E3
:1015E000540B0E94EE0A0E940803C5E1D6E00E9457
:1015F0005F032097E1F30E941506F9CF1F920F9227
:101600000FB60F9211242F933F938F939F93AF9315
:10161000BF938091390290913A02A0913B02B09120
:101620003C023091380223E0230F2D3720F401963D
:10163000A11DB11D05C026E8230F0296A11DB11DF5
:10164000209338028093390290933A02A0933B0290
:10165000B0933C0280913D0290913E02A0913F02E6
:10166000B09140020196A11DB11D80933D0290935F
:101670003E02A0933F02B0934002BF91AF919F9171
:101680008F913F912F910F900FBE0F901F90189543
:101690002FB7F8946091390270913A0280913B0221
:1016A00090913C022FBF0895789484B5826084BDE8
:1016B00084B5816084BD85B5826085BD85B5816056
:1016C00085BDEEE6F0E0808181608083E1E8F0E0B6
:1016D0001082808182608083808181608083E0E8E5
:1016E000F0E0808181608083E1EBF0E080818460C4
:1016F0008083E0EBF0E0808181608083EAE7F0E0C6
:101700008081846080838081826080838081816029
:1017100080838081806880831092C10008951F9328
:10172000CF93DF93182FEB0161E00E94170C2097F5
:1017300011F460E004C0CF3FD10539F461E0812F9E
:10174000DF91CF911F910C94530CE12FF0E0ED55F8
:10175000FF4FE491E330F9F048F4E130B9F0E230C2
:10176000A1F584B5806284BDC8BD34C0E730E9F01E
:10177000E83019F1E43049F580918000806280936F
:101780008000D0938B00C0938A0024C084B5806809
:1017900084BDC7BD1FC08091800080688093800099
:1017A000D0938900C093880015C08091B0008068F4
:1017B0008093B000C093B3000DC08091B0008062F0
:1017C0008093B000C093B40005C0C038D1050CF0C0
:1017D000B5CFAFCFDF91CF911F910895833081F0C6
:1017E00028F4813099F08230A1F008958730A9F073
:1017F0008830B9F08430D1F4809180008F7D03C0AF
:10180000809180008F7780938000089584B58F77D2
:1018100002C084B58F7D84BD08958091B0008F771C
:1018200003C08091B0008F7D8093B0000895CF9366
:10183000DF9390E0FC01E954FF4F2491FC01E55354
:10184000FF4F8491882361F190E0880F991FFC017C
:10185000E751FF4FC591D491FC01E152FF4FA59193
:10186000B491611109C09FB7F894888120958223B3
:101870008883EC912E230BC0623061F49FB7F894FB
:101880008881322F309583238883EC912E2B2C93E3
:101890009FBF06C08FB7F894E8812E2B28838FBF97
:1018A000DF91CF9108951F93CF93DF93282F30E0DE
:1018B000F901ED55FF4F8491F901E954FF4FD4919F
:1018C000F901E553FF4FC491CC23C1F0162F8111CC
:1018D0000E94EE0BEC2FF0E0EE0FFF1FE152FF4FE6
:1018E000A591B4919FB7F894111104C08C91D09533
:1018F000D82302C0EC91DE2BDC939FBFDF91CF9108
:101900001F910895DB018F939F930E94DF0CBF917D
:10191000AF91A29F800D911DA39F900DB29F900D3E
:1019200011240895991B79E004C0991F961708F0B7
:10193000961B881F7A95C9F780950895A1E21A2E03
:10194000AA1BBB1BFD010DC0AA1FBB1FEE1FFF1F63
:10195000A217B307E407F50720F0A21BB30BE40BB3
:10196000F50B661F771F881F991F1A9469F76095FA
:101970007095809590959B01AC01BD01CF010895B4
:10198000052E97FB1EF400940E94D70C57FD07D03C
:101990000E949E0C07FC03D04EF40C94D70C50957B
:1019A0004095309521953F4F4F4F5F4F089590954B
:1019B0008095709561957F4F8F4F9F4F08950E943E
:1019C000F00CA59F900DB49F900DA49F800D911DCC
:1019D00011240895EE0FFF1F0590F491E02D099456
:1019E000A29FB001B39FC001A39F700D811D112460
:1019F000911DB29F700D811D1124911D08950E94AB
:101A0000770D08F481E008950E940B0D6894B111E0
:101A10000C94E60D08950E94CB0D88F09F5798F026
:101A2000B92F9927B751B0F0E1F0660F771F881FE3
:101A3000991F1AF0BA95C9F714C0B13091F00E94FD
:101A4000E50DB1E008950C94E50D672F782F8827F8
:101A5000B85F39F0B93FCCF3869577956795B39524
:101A6000D9F73EF490958095709561957F4F8F4F93
:101A70009F4F0895E89409C097FB3EF49095809598
:101A8000709561957F4F8F4F9F4F9923A9F0F92F44
:101A900096E9BB279395F695879577956795B795C2
:101AA000F111F8CFFAF4BB0F11F460FF1BC06F5FA8
:101AB0007F4F8F4F9F4F16C0882311F096E911C0BA
:101AC000772321F09EE8872F762F05C0662371F0DB
:101AD00096E8862F70E060E02AF09A95660F771FEF
:101AE000881FDAF7880F9695879597F90895990FCB
:101AF0000008550FAA0BE0E8FEEF16161706E807D8
:101B0000F907C0F012161306E407F50798F0621BF8
:101B1000730B840B950B39F40A2661F0232B242BCD
:101B2000252B21F408950A2609F4A140A6958FEFEC
:101B3000811D811D089597F99F6780E870E060E03E
:101B400008959FEF80EC089500240A941616170656
:101B500018060906089500240A941216130614069E
:101B600005060895092E0394000C11F4882352F001
:101B7000BB0F40F4BF2B11F460FF04C06F5F7F4FB9
:101B80008F4F9F4F089557FD9058440F551F59F0A0
:101B90005F3F71F04795880F97FB991F61F09F3F5A
:101BA00079F087950895121613061406551FF2CF83
:101BB0004695F1DF08C0161617061806991FF1CFD3
:101BC00086957105610508940895E894BB276627FA
:101BD0007727CB0197F908950E94FF0D0C94B20D61
:101BE0000E94A40D38F00E94AB0D20F0952311F057
:101BF0000C949B0D0C94A10D11240C94E60D0E94E5
:101C0000C30D70F3959FC1F3950F50E0551F629F70
:101C1000F001729FBB27F00DB11D639FAA27F00D45
:101C2000B11DAA1F649F6627B00DA11D661F829F6C
:101C30002227B00DA11D621F739FB00DA11D621F51
:101C4000839FA00D611D221F749F3327A00D611D6E
:101C5000231F849F600D211D822F762F6A2F112450
:101C60009F5750409AF0F1F088234AF0EE0FFF1F83
:101C7000BB1F661F771F881F91505040A9F79E3FDA
:101C8000510580F00C949B0D0C94E60D5F3FE4F33E
:101C9000983ED4F3869577956795B795F795E79530
:101CA0009F5FC1F7FE2B880F911D9695879597F939
:101CB00008950F931F93CF93DF938230910510F413
:101CC00082E090E0E0914302F091440220E030E0B5
:101CD000A0E0B0E0309719F1408151810281138179
:101CE00048175907C8F08417950769F4109731F021
:101CF00012960C93129713961C9327C000934302DD
:101D00001093440222C02115310519F042175307E0
:101D100018F49A01BD01EF01DF01F801DBCF2115B5
:101D20003105F9F0281B390B2430310580F48A8104
:101D30009B816115710521F0FB019383828304C0AF
:101D40009093440280934302FE01329644C0FE0108
:101D5000E20FF31F81939193225031093983288335
:101D60003AC02091410230914202232B41F420914C
:101D700002013091030130934202209341022091ED
:101D80000001309101012115310541F42DB73EB715
:101D90004091040150910501241B350BE091410253
:101DA000F0914202E217F307A0F42E1B3F0B281715
:101DB000390778F0AC014E5F5F4F2417350748F0C4
:101DC0004E0F5F1F509342024093410281939193C3
:101DD00002C0E0E0F0E0CF01DF91CF911F910F91C1
:101DE0000895CF93DF93009709F481C0FC013297E7
:101DF00013821282A0914302B0914402109781F4A1
:101E000020813181820F931F209141023091420243
:101E10002817390751F5F0934202E093410267C059
:101E2000ED0120E030E0CE17DF0740F44A815B810E
:101E30009E0141155105F1F0EA01F5CFD383C2832C
:101E400040815181840F951FC817D90759F48881A3
:101E50009981840F951F0296918380838A819B814B
:101E6000938382832115310529F4F0934402E09392
:101E700043023DC0E901FB83EA8349915991C40FB4
:101E8000D51FEC17FD0761F480819181840F951FA8
:101E90000296E90199838883828193819B838A8357
:101EA000E0E0F0E012968D919C911397009719F065
:101EB000FD01DC01F7CF8D919C9111979D012E5F63
:101EC0003F4F820F931F2091410230914202281709
:101ED000390769F4309729F41092440210924302B2
:101EE00002C013821282B0934202A0934102DF919A
:101EF000CF910895A0E0B0E0E0E8FFE00C94F81185
:101F0000EC01009721F4CB010E94590EB4C0FC01F2
:101F1000E60FF71F9C0122503109E217F30708F47E
:101F2000A8C0D9010D911C91119706171707B0F0A1
:101F30000530110508F49BC0C80104978617970760
:101F400008F495C002501109061B170B0193119359
:101F50006D937C93CF010E94F10E89C05B01A01AA2
:101F6000B10A4C01800E911EA0914302B09144022F
:101F7000612C712CE12CF12C109709F446C08D9145
:101F80009C911197A815B905B1F56C0142E0C40EFA
:101F9000D11CCA14DB0478F14C018A189B08640137
:101FA00042E0C40ED11C1296BC9012971396AC91CD
:101FB000B5E0CB16D10440F0B282A3839182808237
:101FC000D9016D937C9309C00E5F1F4F800F911F45
:101FD000F90191838083EB2DFA2FE114F10431F0A4
:101FE000D7011396FC93EE93129741C0F0934402ED
:101FF000E09343023CC06816790608F43C017D0179
:1020000012960D90BC91A02DB7CF80914102909176
:10201000420288169906E1F466167706C8F48091A4
:10202000000190910101009741F48DB79EB7409156
:10203000040150910501841B950BE817F907C8F4BA
:10204000F0934202E0934102F901718360830FC073
:10205000CB010E94590E7C01009759F0A801BE01E6
:102060000E944D10CE010E94F10EC70104C0CE01A6
:1020700002C080E090E0CDB7DEB7EEE00C94141221
:10208000662777270C948B1091110C94D91180320C
:1020900019F089508550C8F70895FB01DC0102C092
:1020A00001900D9241505040D8F70895FC01819164
:1020B000861721F08823D9F7992708953197CF0102
:1020C0000895FB01DC018D91019080190110D9F375
:1020D000990B0895FB01DC0101900D920020E1F7BE
:1020E0000895FB0151915523A9F0BF01DC014D91E9
:1020F00045174111E1F759F4CD010190002049F055
:102100004D9140154111C9F3FB014111EFCF81E021
:1021100090E001970895A0E0B0E0E1E9F0E10C94CF
:10212000FA11EC016B016115710519F0FB01918346
:1021300080837E01FFEFEF1AFF0A0881802F90E075
:102140000E944410892B11F0E701F3CF0D3239F4CE
:102150007E0182E0E80EF11C098111E008C00B321B
:1021600029F47E0192E0E90EF11C098110E0E701FB
:10217000219743E050E060E770E0CE010E94DC115F
:10218000892BC1F4239645E050E06BE670E0CE0168
:102190000E94DC11892B09F42596C114D10419F091
:1021A000F601D183C0831111F6C060E070E080E8D1
:1021B0009FE7FAC043E050E068E670E0CE010E947D
:1021C000DC11892B59F4C114D10409F4E9C0F2E0FF
:1021D000EF0EF11CF601F182E082E2C020E030E077
:1021E000A901C0E0D0E0F70180EDA82EA00E89E0A3
:1021F0008A1530F1912F9260B92E812F887012FFCD
:1022000004C0811124C0219622C081112197A5E02C
:10221000B0E00E94DF0CDC01CB01880F991FAA1FE0
:10222000BB1F9C01AD012A0D311D411D511D2839D7
:1022300089E93807480789E1580748F0166006C061
:102240009EEFA9120AC013FD40C01860B12E8FEF97
:10225000E81AF80A00811B2DC6CF802F8F7D8534A8
:10226000A1F580818D3211F4106106C08B3221F00E
:10227000319661E070E004C08181329662E070E0E6
:1022800080538A3018F0E61BF70B1FC060E070E047
:1022900060389CE079075CF4DB01AA0FBB1FAA0F32
:1022A000BB1F6A0F7B1F660F771F680F711D31966A
:1022B000DF0111978C9180538A3050F314FF03C0D3
:1022C000719561957109C60FD71F11FF08C0C11420
:1022D000D10429F0CF010197F60191838083CA01CF
:1022E000B9010E943A0D212F2370233019F04B01C0
:1022F0005C0106C04B015C01B7FAB094B7F8B0942A
:1023000020E030E0A901C501B4010E94FF0C882340
:1023100009F43EC0D7FF06C0D195C195D10907E8A1
:1023200010E002C00FE910E06801F8E1CF1AD1080F
:1023300090E2E92EF12CCE15DF0574F0F80125911D
:10234000359145915491C501B4010E94EC0D4B01AA
:102350005C01CE19DF09EFCF04501109F594E79421
:102360000C151D0541F78A2D880F8B2D881F8F3F77
:1023700049F020E030E0A901C501B4010E94FF0C42
:10238000811106C082E290E090934602809345025C
:10239000C501B40109C060E070E080E89FEF04C0AF
:1023A00060E070E080EC9FE7CDB7DEB7ECE00C9426
:1023B0001612992788270895FB01DC0141505040EF
:1023C00088F08D9181341CF08B350CF4805E659122
:1023D00061341CF06B350CF4605E861B611171F387
:1023E000990B0895881BFCCF2F923F924F925F92DA
:1023F0006F927F928F929F92AF92BF92CF92DF9215
:10240000EF92FF920F931F93CF93DF93CDB7DEB779
:10241000CA1BDB0B0FB6F894DEBF0FBECDBF09940D
:102420002A88398848885F846E847D848C849B8464
:10243000AA84B984C884DF80EE80FD800C811B8172
:10244000AA81B981CE0FD11D0FB6F894DEBF0FBEA1
:10245000CDBFED01089510E0CCE7D0E004C0FE014F
:102460000E94EA0C2196CD37D107C9F7F894FFCF27
:1024700000004702800061740064740073006C0007
:10248000747275650066616C736500496E70757471
:102490003A2000457865637574653A2000496E7688
:1024A000616C696420636F6D6D616E642100000072
:1024B00000004506A80706069206D805F205E405C1
:1024C0000D0A006E616E00696E66006F7666000030
:00000001FF
