:100000000C945E000C9486000C9486000C94860080
:100010000C9486000C9486000C9486000C94860048
:100020000C9486000C9486000C9486000C94770344
:100030000C9486000C9486000C9486000C94860028
:100040000C946C0A0C9486000C94AD060C94DF069C
:100050000C9486000C9486000C9486000C94860008
:100060000C9486000C948600000000080002010039
:100070000003040700000000000000000102040863
:100080001020408001020408102001020408102002
:10009000040404040404040402020202020203032E
:1000A0000303030300000000250028002B000000CC
:1000B0000000240027002A00A0020F0711241FBE01
:1000C000CFEFD8E0DEBFCDBF11E0A0E0B1E0E8E0C7
:1000D000FFE102C005900D92A239B107D9F722E0E5
:1000E000A2E9B1E001C01D92A636B207E1F710E027
:1000F000CEE5D0E004C02197FE010E947D0CCC35F6
:10010000D107C9F70E945D0A0C94820F0C9400007D
:1001100061E088E00E94E60B60E084E00E94E60B6C
:1001200061E087E00E94E60B60E088E00C94E60B5B
:10013000813019F0823019F008950C94880060E045
:1001400088E00E94E60B61E084E00E94E60B60E03C
:1001500087E00E94E60B61E088E00C94E60BCF9309
:10016000C62F682F70E088E00E94220B6C2F70E091
:1001700085E0CF910C94220B682F70E083E991E029
:100180000C941005682F70E083E991E00C94D4047E
:10019000CF92DF92EF92FF920F931F93CF93DF9353
:1001A00000D000D000D0CDB7DEB77C018B01BA0102
:1001B000C8010E94A80997FD21C0AC016AE3C801EB
:1001C0000E946F0901966C01AC016BE3C8010E94AB
:1001D0006F099C01A601B801CE0101960E94AC09ED
:1001E000CE0101960E94F109BE016F5F7F4FC701EA
:1001F0000E94A708CE0101960E940D08C70126960D
:100200000FB6F894DEBF0FBECDBFDF91CF911F9127
:100210000F91FF90EF90DF90CF900895CF93DF93F1
:10022000EC0160E070E00E94500981111CC06BE19C
:1002300071E0CE010E945009811117C066E071E0A3
:10024000CE010E945009811112C068E071E0CE0118
:100250000E94500981110DC06AE071E0CE010E9438
:100260005009811108C080E007C081E005C082E02C
:1002700003C083E001C084E0DF91CF910895CF9364
:10028000DF93EC0160E070E00E945009811105C02D
:10029000CE010E94510ACB0102C081EF98EDDF919F
:1002A000CF910895FF920F931F93CF93DF93CDB714
:1002B000DEB7A4970FB6F894DEBF0FBECDBF8C019A
:1002C0006CE071E0CE0149960E947B08B801CE0136
:1002D0004F960E94A708AE01475E5F4FBE01615E68
:1002E0007F4FCE0143960E94C800CE0143960E94E4
:1002F0000E01F82E6FE071E0CE0107960E947B0898
:10030000B801CE010D960E94A708AE01495F5F4F6C
:10031000BE01635F7F4FCE0101960E94C800CE01EF
:1003200001960E943F018C01CE0101960E940D08AA
:10033000CE010D960E940D08CE0107960E940D0871
:10034000CE0143960E940D08CE014F960E940D08E3
:10035000CE0149960E940D086F2D702F812FA49613
:100360000FB6F894DEBF0FBECDBFDF91CF911F91C6
:100370000F91FF9008954F925F926F927F92AF928C
:10038000BF92CF92DF92EF92FF920F931F93CF9382
:10039000472E582E052C000C66087708C301B201C1
:1003A00077FE07C066277727CB0164197509860990
:1003B00097091F921F921F922FEF2F93A12CB12C00
:1003C000650114E6E12EF12C00E010E020E030E0C1
:1003D000A9010E94CC07C62F0F900F900F900F908D
:1003E000141415041604170414F082E001C081E00F
:1003F0000E9498006C2F8C2F0E94AF0081E0CF915B
:100400001F910F91FF90EF90DF90CF90BF90AF9032
:100410007F906F905F904F900895AF92BF92CF9270
:10042000DF92EF92FF920F931F93672F782F072E83
:10043000000C880B990B1F921F921F9224EB2F9395
:10044000A12CB12C650114E6E12EF12C00E010E0A6
:100450002CE93FEF4FEF5FEF0E94CC07862F0E9401
:10046000BC000F900F900F900F9081E01F910F91A3
:10047000FF90EF90DF90CF90BF90AF900895272F1F
:10048000382F61E0121613060CF060E08DE00E9438
:10049000E60B81E00895623059F028F46130C9F428
:1004A00061E00C94BB01633031F0643039F011C06D
:1004B00062E00C940D0263E00C943F02272F382F6A
:1004C00081E0121613060CF080E08093920181E027
:1004D000089580E0089526E040E855E260E070E08D
:1004E0008CEB91E00E94480661E088E00E94AA0B34
:1004F00061E084E00E94AA0B61E087E00E94AA0B01
:1005000061E088E00E94AA0B61E088E00E94AA0BEB
:1005100061E085E00E94AA0B0E94880061E08BE008
:100520000E94AA0B8BE00E94C2008AE50E94BC00D8
:1005300061E08DE00E94AA0B60E08DE00C94E60B78
:1005400083E991E00C9438048F929F92AF92BF920E
:10055000CF92DF92EF92FF921F93CF93DF93CDB7AD
:10056000DEB72C970FB6F894DEBF0FBECDBF8CEB75
:1005700091E00E946C05181619060CF0A6C04AE01E
:100580006CEB71E0CE0107960E94A407BE01695F83
:100590007F4FCE0101960E94A708CE0101960E94CE
:1005A0005201D62EE72EF82ECE0101960E940D089C
:1005B000DD2009F45EC0C70180589F4F8F3F910531
:1005C00011F008F056C00E94C20A4B015C016D2D6B
:1005D0007E2D8F2D0E944B02182F0E94C20A6B01A4
:1005E0007C0180919201882309F46BC06DE171E078
:1005F000CE0101960E947B08BE01695F7F4FCE014C
:1006000001960E94F50865E271E0CE0101960E9414
:10061000FC08111103C067E171E002C062E171E002
:10062000CE0101960E94FC0861E371E0CE010196C3
:100630000E94FC08C818D908EA08FB08B701A601FF
:10064000CE0101960E941E096FE371E0CE01019672
:100650000E94FC0860E472E48FE090E0A70196013C
:100660000E94530CBA01A901CE0101960E941E09F5
:1006700017C080919201882321F16DE171E0CE01D4
:1006800001960E947B08BE01695F7F4FCE010196F3
:100690000E94F5086DE671E0CE0101960E94FC080B
:1006A00066E571E0CE0101960E94FC08BE016F5F15
:1006B0007F4F8CEB91E00E946607CE0101960E946D
:1006C0000D08CE0107960E940D082C960FB6F894DF
:1006D000DEBF0FBECDBFDF91CF911F91FF90EF9096
:1006E000DF90CF90BF90AF909F908F9008951F9212
:1006F0000F920FB60F9211242F933F934F935F9356
:100700006F937F938F939F93AF93BF93EF93FF93D9
:100710008091970187FF05C0109285001092840098
:100720001BC020919701022E000C330B8091960183
:1007300090E02817390784F480919701082E000C67
:10074000990BFC01EE0FFF1F8E0F9F1FFC01E85657
:10075000FE4F808186FD15C0809197018F5F809349
:10076000970120919701022E000C330B8091960186
:1007700090E028173907C4F4809197018C3064F118
:1007800013C080919701082E000C990BFC01EE0F0D
:10079000FF1F8E0F9F1FFC01E856FE4F808160E017
:1007A0008F730E94E60BD8CF8091840090918500D2
:1007B000049680349C4918F480E49CE905C080913B
:1007C000840090918500049690938900809388001E
:1007D0008FEF809397013BC020918400309185007A
:1007E00080919701082E000C990BFC01EE0FFF1F62
:1007F0008E0F9F1FFC01E856FE4F81819281820F70
:10080000931F909389008093880080919701082E10
:10081000000C990BFC01EE0FFF1F8E0F9F1FFC01B8
:10082000E856FE4F808186FF12C080919701082E06
:10083000000C990BFC01EE0FFF1F8E0F9F1FFC0198
:10084000E856FE4F808161E08F730E94E60BFF91B6
:10085000EF91BF91AF919F918F917F916F915F9138
:100860004F913F912F910F900FBE0F901F901895B1
:10087000FC01909196019C30A0F481E0890F809357
:1008800096019083892F90E0FC01EE0FFF1F8E0FE1
:100890009F1FFC01E856FE4F88EB9BE0928381830B
:1008A00008958FEF80830895DF92EF92FF920F9368
:1008B0001F93CF93DF93EC01D62E7A0189018881B3
:1008C0008C3008F068C061E08D2D0E94AA0B8881F1
:1008D000E82FF0E09F01220F331FE20FF31FE856CD
:1008E000FE4F9D2D9F732081207CD22ED92AD0824D
:1008F00020E232E02E193F0937FF02C02D5F3F4F43
:100900003595279535952795298320E639E0201BD5
:10091000310B37FF02C02D5F3F4F35952795359539
:1009200027952A836CE00E94250C9CE0899FB001EA
:10093000112440E050E09B01240F351FF901EE0F18
:10094000FF1F2E0F3F1FF901E856FE4F908196FDC5
:1009500016C04F5F5F4F4C30510569F781110FC0D2
:100960001092800082E080938100109285001092A6
:100970008400B19A80916F00826080936F00E8815B
:10098000F0E0CF01880F991FE80FF91FE856FE4FDE
:100990008081806480838881DF91CF911F910F9146
:1009A000FF90EF90DF90089520E639E040E252E0BA
:1009B0000C945404FC0190819C3088F5818128E8D6
:1009C00030E0281B310987FD3395220F331F220F9A
:1009D000331F6217730784F0828148E552E0481B99
:1009E000510987FD5395440F551F440F551F9B0117
:1009F000461757070CF49A0122503109220F331F72
:100A00004FB7F894892F90E0FC01EE0FFF1F8E0F77
:100A10009F1FFC01E856FE4F328321834FBF08958C
:100A2000AF92BF92CF92DF92EF92FF920F931F93FC
:100A3000CF93DF93EC01603282E078070CF03FC087
:100A400077FD06C0653B71052CF064EB70E002C0D9
:100A500060E070E0898128E830E05901A81AB10807
:100A600087FDB394AA0CBB1CAA0CBB1C0B2C000C5E
:100A7000CC08DD08072E000C880B990B2A8108E5AD
:100A800012E0021B110927FD1395000F111F000F23
:100A9000111F012E000C220B330B3F932F931F933A
:100AA0000F9314EBE12EF12C00E010E020E030E099
:100AB000A9010E94CC070F900F900F900F90CE01CC
:100AC000DF91CF911F910F91FF90EF90DF90CF902A
:100AD000BF90AF900C94DA04FC01918D228D892F88
:100AE00090E0805C9F4F821B91098F739927089536
:100AF000FC01918D828D981731F0828DE80FF11DE8
:100B0000858D90E008958FEF9FEF0895FC01918D02
:100B1000828D981761F0828DDF01A80FB11D5D965F
:100B20008C91928D9F5F9F73928F90E008958FEFCD
:100B30009FEF0895FC01538D448D252F30E0842FC5
:100B400090E0821B930B541710F0CF9608950197F5
:100B5000089585E097E0892B49F080E090E0892BAB
:100B600029F00E94050781110C9400000895FC01F2
:100B7000848DDF01A80FB11DA35ABF4F2C91848D26
:100B800090E001968F739927848FA689B7892C935B
:100B9000A089B1898C91837080648C93938D848DAE
:100BA000981306C00288F389E02D80818F7D8083B1
:100BB0000895EF92FF920F931F93CF93DF93EC0171
:100BC00081E0888F9B8D8C8D981305C0E889F98909
:100BD000808185FD26C0F62E0B8D10E00F5F1F4F24
:100BE0000F731127E02E8C8DE8120CC00FB607FC96
:100BF000FACFE889F989808185FFF5CFCE010E947F
:100C0000B705F1CF8B8DFE01E80FF11DE35AFF4FC1
:100C1000F0829FB7F8940B8FEA89FB89808180620C
:100C20000AC09FB7F894EE89FF896083E889F98943
:100C300080818370806480839FBF81E090E0DF913A
:100C4000CF911F910F91FF90EF900895CF93DF9375
:100C5000EC01888D8823C9F0EA89FB89808185FDB4
:100C600005C0A889B9898C9186FD0FC00FB607FC15
:100C7000F5CF808185FFF2CFA889B9898C9185FF56
:100C8000EDCFCE010E94B705E7CFDF91CF91089558
:100C9000CF92DF92EF92FF921F93CF93DF93EC01FD
:100CA0006A017B01122FE889F98982E0808341156E
:100CB000514E61057105B1F060E079E08DE390E09F
:100CC000A70196010E94310CDA01C9010197A1091F
:100CD000B109B695A795979587959C01211580E157
:100CE0003807A8F0E889F989108260E874E88EE195
:100CF00090E0A70196010E94310CDA01C901019729
:100D0000A109B109B695A795979587959C01EC85A2
:100D1000FD853083EE85FF852083188EEC89FD8963
:100D20001083EA89FB89808180618083EA89FB895D
:100D3000808188608083EA89FB89808180688083E4
:100D4000EA89FB8980818F7D8083DF91CF911F911C
:100D5000FF90EF90DF90CF9008951F920F920FB603
:100D60000F9211242F938F939F93EF93FF93E09112
:100D7000CC01F091CD018081E091D201F091D301BD
:100D800082FD12C090818091D5018F5F8F73209179
:100D9000D601821751F0E091D501F0E0E454FE4F06
:100DA000958F8093D50101C08081FF91EF919F9134
:100DB0008F912F910F900FBE0F901F9018951F923B
:100DC0000F920FB60F9211242F933F934F935F937F
:100DD0006F937F938F939F93AF93BF93EF93FF9303
:100DE0008CEB91E00E94B705FF91EF91BF91AF911D
:100DF0009F918F917F916F915F914F913F912F9133
:100E00000F900FBE0F901F9018958CEB91E00E94F1
:100E10006C0521E0892B09F420E0822F0895ECEB8A
:100E2000F1E01382128288EE93E0A0E0B0E08483C8
:100E30009583A683B78383E891E09183808385ECD3
:100E400090E09587848784EC90E09787868780EC94
:100E500090E0918B808B81EC90E0938B828B82EC85
:100E600090E0958B848B86EC90E0978B868B118E2F
:100E7000128E138E148E0895CF92DF92EF92FF920E
:100E80000F931F93CF93DF936C017A018B01C0E026
:100E9000D0E0CE15DF0581F0D8016D918D01D6012E
:100EA000ED91FC910190F081E02DC6010995892B0F
:100EB00011F02196EECF7E01C701DF91CF911F91F6
:100EC0000F91FF90EF90DF90CF900895DB01149683
:100ED0004D915C9115976D917C91DC01ED91FC91A8
:100EE0000280F381E02D09940F931F93CF93DF933A
:100EF000EC010E94B60A688779878A879B87E88118
:100F0000F9810284F385E02DCE01099597FF17C082
:100F10000E94B60A088519852A853B85DC01CB012C
:100F2000801B910BA20BB30B0C811D812E813F8185
:100F300080179107A207B30710F38FEF9FEFDF91A0
:100F4000CF911F910F910895EF92FF920F931F93EE
:100F5000CF93DF93EC017B01042F6CE671E00E94DC
:100F60007B08C7010E947407002E000C110B97FD2F
:100F70000BC08017910741F0682FCE010E940B092A
:100F8000C7010E947407F3CFCE01DF91CF911F916B
:100F90000F91FF90EF9008954F925F926F927F9222
:100FA000AF92BF92CF92DF92EF92FF920F931F9377
:100FB000CF93DF93CDB7DEB729013A019B01AC0196
:100FC000241935094609570989899A89AB89BC8949
:100FD000BC01CD016A197B098C099D090E94150C81
:100FE000A801970124193509460957090E94530C95
:100FF000CA01B9016A0D7B1D8C1D9D1DDF91CF912A
:101000001F910F91FF90EF90DF90CF90BF90AF9026
:101010007F906F905F904F900895FC018081918147
:101020000C942A0DCF93DF93EC018881998100976E
:1010300011F00E942A0D198218821D821C821B82C7
:101040001A82DF91CF9108950F931F93CF93DF936F
:10105000EC018B016F5F7F4F888199810E94B30DF6
:10106000009731F0998388831B830A8381E001C054
:1010700080E0DF91CF911F910F910895CF93DF937F
:10108000EC0188819981892B29F08A819B818617BF
:10109000970760F4CE010E942408882341F08C81D8
:1010A0009D81892B19F4E881F981108281E0DF911B
:1010B000CF910895EF92FF920F931F93CF93DF93F9
:1010C000EC017B018A01BA010E943E08811104C033
:1010D000CE010E94120807C01D830C83B7018881CE
:1010E00099810E94C60ECE01DF91CF911F910F9181
:1010F000FF90EF900895FC011182108213821282FA
:10110000158214826115710551F0FB0101900020D8
:10111000E9F73197AF01461B570B0C945A08089515
:10112000CF93DF93EC01FB018617970761F0608195
:1011300071816115710529F0448155810E945A0819
:1011400002C00E941208CE01DF91CF910895FC01E8
:101150001182108213821282158214820C949008DC
:10116000CF93DF93EC016115710559F0FB010190FC
:101170000020E9F73197AF01461B570B0E945A0830
:1011800002C00E941208CE01DF91CF910895EF9224
:10119000FF920F931F93CF93DF936115710511F4A5
:1011A00080E01CC041155105C1F07B01EC018C8130
:1011B0009D818A01080F191FB801CE010E943E08C7
:1011C000882371F3288139818C819D81B701820F39
:1011D000931F0E94C60E1D830C8381E0DF91CF9187
:1011E0001F910F91FF90EF900895FB01448155816D
:1011F000608171810C94C7086115710551F0FB0184
:1012000001900020E9F73197AF01461B570B0C9472
:10121000C70880E00895CF93DF9300D0CDB7DEB745
:1012200069831A8241E050E0BE016F5F7F4F0E94E8
:10123000C7080F900F90DF91CF910895EF92FF9222
:101240000F931F93CF93DF93CDB7DEB72E970FB6D3
:10125000F894DEBF0FBECDBF7C01CB01BA012AE0FE
:1012600030E08E010F5F1F4FA8010E94E70EF801CA
:1012700001900020E9F73197AF01401B510BB801F5
:10128000C7010E94C7082E960FB6F894DEBF0FBEA6
:10129000CDBFDF91CF911F910F91FF90EF900895F7
:1012A000FC0124813581232B31F421E06115710586
:1012B000A1F0FB0108C0FC018081918161157105DD
:1012C00031F421E0FC018081882339F005C00E94BF
:1012D000BD0E21E0892B09F020E0822F0895CF93E5
:1012E000DF93FC01248135814217530778F4C081D4
:1012F000D181062E000C770BCE01840F951F0E9422
:10130000B20E009719F08C1B9D0B02C08FEF9FEF60
:10131000DF91CF910895CF93DF93FC012481358134
:101320004217530780F4FB01DC01CD91DC91608111
:101330007181CE01840F951F0E94CD0E009719F088
:101340008C1B9D0B02C08FEF9FEFDF91CF91089513
:1013500040E050E00C948B09BF92CF92DF92EF9265
:10136000FF920F931F93CF93DF937C016B018A0150
:10137000E9012417350720F4812F8901C42FD82FC4
:101380006CE671E0C7010E947B08D60114968D912E
:101390009C91159708171907C8F48C179D0708F436
:1013A000EC01D601ED91FC911197EC0FFD1FB0807F
:1013B00010826D917C91600F711FC7010E94B0086F
:1013C000D601ED91FC91EC0FFD1FB082C701DF91BA
:1013D000CF911F910F91FF90EF90DF90CF90BF9032
:1013E0000895AF92BF92CF92DF92EF92FF920F9348
:1013F0001F93CF93DF93DC01CD90DC901197C11444
:10140000D10409F443C01496CD91DC91159720972F
:10141000E9F18C0176015701BFEFAB1ABB0AF70166
:101420008081082E000C990B0E94A00E892B11F0D0
:101430007501F1CF2197CC0DDD1D8881082E000CA0
:10144000990B0E94A00E892B29F0CE15DF0510F014
:101450002197F3CFAE014F5F5F4F4E195F09D8015F
:1014600015965C934E931497CE14DF0420F4B701C5
:10147000C6010E94A90ED801ED91FC911197149616
:101480008D919C911597E80FF91F1082DF91CF91F4
:101490001F910F91FF90EF90DF90CF90BF90AF9092
:1014A0000895FC0180819181009711F00C94790ED0
:1014B00060E070E0CB01089508950E94E70A0E9461
:1014C0005C0A0E946B02C9EAD5E00E94A402209740
:1014D000E1F30E94A905F9CF1F920F920FB60F9268
:1014E00011242F933F938F939F93AF93BF9380913A
:1014F0005A0290915B02A0915C02B0915D02309122
:10150000590223E0230F2D3720F40196A11DB11DB0
:1015100005C026E8230F0296A11DB11D2093590294
:1015200080935A0290935B02A0935C02B0935D0299
:1015300080915E0290915F02A0916002B091610281
:101540000196A11DB11D80935E0290935F02A0934E
:101550006002B0936102BF91AF919F918F913F91D3
:101560002F910F900FBE0F901F9018952FB7F894E2
:1015700060915A0270915B0280915C0290915D02D1
:101580002FBF08953FB7F89480915E0290915F025B
:10159000A0916002B091610226B5A89B05C02F3FC3
:1015A00019F00196A11DB11D3FBFBA2FA92F982F89
:1015B0008827820F911DA11DB11DBC01CD0142E004
:1015C000660F771F881F991F4A95D1F70895789461
:1015D00084B5826084BD84B5816084BD85B5826038
:1015E00085BD85B5816085BDEEE6F0E080818160D6
:1015F0008083E1E8F0E010828081826080838081D6
:1016000081608083E0E8F0E0808181608083E1EBAD
:10161000F0E0808184608083E0EBF0E08081816095
:101620008083EAE7F0E0808184608083808182604B
:101630008083808181608083808180688083109234
:10164000C10008951F93CF93DF93182FEB0161E042
:101650000E94AA0B209711F460E004C0CF3FD1058F
:1016600039F461E0812FDF91CF911F910C94E60B4B
:10167000E12FF0E0E859FF4FE491E330F9F048F44E
:10168000E130B9F0E230A1F584B5806284BDC8BD17
:1016900034C0E730E9F0E83019F1E43049F58091E1
:1016A0008000806280938000D0938B00C0938A007A
:1016B00024C084B5806884BDC7BD1FC080918000F0
:1016C000806880938000D0938900C093880015C003
:1016D0008091B00080688093B000C093B3000DC0CB
:1016E0008091B00080628093B000C093B40005C0C8
:1016F000C038D1050CF0B5CFAFCFDF91CF911F919E
:101700000895833081F028F4813099F08230A1F07F
:1017100008958730A9F08830B9F08430D1F48091F1
:1017200080008F7D03C0809180008F778093800040
:10173000089584B58F7702C084B58F7D84BD0895E8
:101740008091B0008F7703C08091B0008F7D80932F
:10175000B0000895CF93DF9390E0FC01E458FF4F71
:101760002491FC01E057FF4F8491882361F190E0C0
:10177000880F991FFC01E255FF4FC591D491FC01E0
:10178000EC55FF4FA591B491611109C09FB7F89432
:101790008881209582238883EC912E230BC06230B0
:1017A00061F49FB7F8948881322F30958323888322
:1017B000EC912E2B2C939FBF06C08FB7F894E88135
:1017C0002E2B28838FBFDF91CF9108951F93CF9346
:1017D000DF93282F30E0F901E859FF4F8491F90198
:1017E000E458FF4FD491F901E057FF4FC491CC2347
:1017F000C1F0162F81110E94810BEC2FF0E0EE0F4B
:10180000FF1FEC55FF4FA591B4919FB7F8941111AC
:1018100004C08C91D095D82302C0EC91DE2BDC93D0
:101820009FBFDF91CF911F910895DB018F939F930D
:101830000E94720CBF91AF91A29F800D911DA39F3A
:10184000900DB29F900D11240895991B79E004C06A
:10185000991F961708F0961B881F7A95C9F78095EF
:101860000895A1E21A2EAA1BBB1BFD010DC0AA1FE1
:10187000BB1FEE1FFF1FA217B307E407F50720F0F9
:10188000A21BB30BE40BF50B661F771F881F991F74
:101890001A9469F760957095809590959B01AC01BD
:1018A000BD01CF010895052E97FB1EF400940E9400
:1018B0006A0C57FD07D00E94310C07FC03D04EF490
:1018C0000C946A0C50954095309521953F4F4F4FA1
:1018D0005F4F089590958095709561957F4F8F4FDC
:1018E0009F4F08950E94830CA59F900DB49F900D6B
:1018F000A49F800D911D11240895EE0FFF1F0590E8
:10190000F491E02D0994A29FB001B39FC001A39F61
:10191000700D811D1124911DB29F700D811D112428
:10192000911D08950F931F93CF93DF9382309105FC
:1019300010F482E090E0E0916402F091650220E012
:1019400030E0A0E0B0E0309719F140815181028190
:10195000138148175907C8F08417950769F4109741
:1019600031F012960C93129713961C9327C0009394
:1019700064021093650222C02115310519F0421747
:10198000530718F49A01BD01EF01DF01F801DBCF25
:1019900021153105F9F0281B390B2430310580F46D
:1019A0008A819B816115710521F0FB0193838283FC
:1019B00004C09093650280936402FE01329644C095
:1019C000FE01E20FF31F8193919322503109398375
:1019D00028833AC02091620230916302232B41F4A4
:1019E000209102013091030130936302209362023F
:1019F00020910001309101012115310541F42DB7ED
:101A00003EB74091040150910501241B350BE09134
:101A10006202F0916302E217F307A0F42E1B3F0B62
:101A20002817390778F0AC014E5F5F4F2417350750
:101A300048F04E0F5F1F5093630240936202819300
:101A4000919302C0E0E0F0E0CF01DF91CF911F91D0
:101A50000F910895CF93DF93009709F481C0FC01A3
:101A6000329713821282A0916402B091650210979E
:101A700081F420813181820F931F20916202309185
:101A800063022817390751F5F0936302E09362026D
:101A900067C0ED0120E030E0CE17DF0740F44A8157
:101AA0005B819E0141155105F1F0EA01F5CFD38329
:101AB000C28340815181840F951FC817D90759F4FB
:101AC00088819981840F951F0296918380838A81F2
:101AD0009B81938382832115310529F4F09365025C
:101AE000E09364023DC0E901FB83EA834991599187
:101AF000C40FD51FEC17FD0761F480819181840F1D
:101B0000951F0296E90199838883828193819B8343
:101B10008A83E0E0F0E012968D919C9113970097F4
:101B200019F0FD01DC01F7CF8D919C9111979D017A
:101B30002E5F3F4F820F931F20916202309163020C
:101B40002817390769F4309729F41092650210922A
:101B5000640202C013821282B0936302A0936202F5
:101B6000DF91CF910895A0E0B0E0E9EBFDE00C94A7
:101B70004F0FEC01009721F4CB010E94920CB4C0EE
:101B8000FC01E60FF71F9C0122503109E217F30711
:101B900008F4A8C0D9010D911C91119706171707D9
:101BA000B0F00530110508F49BC0C80104978617F2
:101BB000970708F495C002501109061B170B0193F3
:101BC00011936D937C93CF010E942A0D89C05B0114
:101BD000A01AB10A4C01800E911EA0916402B0912E
:101BE0006502612C712CE12CF12C109709F446C090
:101BF0008D919C911197A815B905B1F56C0142E042
:101C0000C40ED11CCA14DB0478F14C018A189B085D
:101C1000640142E0C40ED11C1296BC901297139638
:101C2000AC91B5E0CB16D10440F0B282A38391828F
:101C30008082D9016D937C9309C00E5F1F4F800F86
:101C4000911FF90191838083EB2DFA2FE114F104A8
:101C500031F0D7011396FC93EE93129741C0F093A5
:101C60006502E09364023CC06816790608F43C0102
:101C70007D0112960D90BC91A02DB7CF809162028C
:101C80009091630288169906E1F466167706C8F407
:101C90008091000190910101009741F48DB79EB7AA
:101CA0004091040150910501841B950BE817F90739
:101CB000C8F4F0936302E0936202F90171836083D8
:101CC0000FC0CB010E94920C7C01009759F0A80133
:101CD000BE010E94A90ECE010E942A0DC70104C0B8
:101CE000CE0102C080E090E0CDB7DEB7EEE00C940C
:101CF0006B0F1F93FC0199278827BC01E894119171
:101D00001032E9F3193010F01E30C8F31B3251F0D5
:101D10001D3249F4689406C00E94010F610F711DC5
:101D2000811D911D119110531A30B0F33EF490951E
:101D30008095709561957F4F8F4F9F4F1F910895AC
:101D400091110C94380F803219F089508550C8F7E2
:101D50000895FB01DC0102C001900D9241505040FA
:101D6000D8F70895FC018191861721F08823D9F7CF
:101D7000992708953197CF010895FB01DC018D91DA
:101D8000019080190110D9F3990B0895FB01DC0132
:101D900001900D920020E1F70895FB015191552328
:101DA000A9F0BF01DC014D9145174111E1F759F44C
:101DB000CD010190002049F04D9140154111C9F32A
:101DC000FB014111EFCF81E090E0019708952532AA
:101DD000310520F4223010F00C94F20EFA0110823A
:101DE000CA010895BB272A3051F4992342F4BDE279
:101DF00090958095709561957F4F8F4F9F4F0C9474
:101E0000170F592F482F372F262F660F771F881F40
:101E1000991F660F771F881F991F620F731F841FFA
:101E2000951F660F771F881F991F0895BB27FA011A
:101E3000A62F6217710581059105330B30FB66F003
:101E4000AA27660F771F881F991FAA1FA21710F0D5
:101E5000A21B63953850A9F7A05DAA3308F0A95DCD
:101E6000A19336F7B111B1931082CA010C943B0FC4
:101E7000992788270895DC01FC01672F719177234A
:101E8000E1F7329704C07C916D9370836291AE1735
:101E9000BF07C8F308952F923F924F925F926F92BF
:101EA0007F928F929F92AF92BF92CF92DF92EF92EA
:101EB000FF920F931F93CF93DF93CDB7DEB7CA1B6B
:101EC000DB0B0FB6F894DEBF0FBECDBF09942A8896
:101ED000398848885F846E847D848C849B84AA843E
:101EE000B984C884DF80EE80FD800C811B81AA81CB
:101EF000B981CE0FD11D0FB6F894DEBF0FBECDBF96
:081F0000ED010895F894FFCFF4
:101F080000006602800073006C0064006174006465
:101F18007400747275650066616C736500496E7053
:101F280075743A20000A45786563757465643A20CB
:101F3800000A44656C74612074696D653A20000A72
:101F4800436F6D6D616E647320696E207365636F96
:101F58006E64733A20000A2D2D2D2D2D2D2D2D2D3B
:101F68002D2D2D2D2D2D2D2D2D2D2D0A000A496EAF
:101F780076616C696420636F6D6D616E6421000029
:101F8800000000D9053C079A0526066C05860578E9
:021F9800050042
:00000001FF
