:100000000C947D000C94A5000C94A5000C94A50004
:100010000C94A5000C94A5000C94A5000C94A500CC
:100020000C94A5000C94A5000C94A5000C947003EE
:100030000C94A5000C94A5000C94A5000C94A500AC
:100040000C94C10A0C94A5000C94A6060C94D80636
:100050000C94A5000C94A5000C94A5000C94A5008C
:100060000C94A5000C94A5004E414E494E4954599C
:10007000494E46CDCCCC3D0AD7233C17B7D1387773
:10008000CC2B329595E6241FB14F0A000020410089
:1000900000C84200401C4620BCBE4CCA1B0E5AAED3
:1000A000C59D740000000800020100000304070061
:1000B0000000000000000001020408102040800140
:1000C000020408102001020408102004040404049F
:1000D00004040402020202020203030303030300F6
:1000E000000000250028002B00000000002400274D
:1000F000002A0000B8020807CE0211241FBECFEF6D
:10010000D8E0DEBFCDBF11E0A0E0B1E0E0E4F4E272
:1001100002C005900D92AE37B107D9F722E0AEE7E5
:10012000B1E001C01D92A536B207E1F710E0CCE7BF
:10013000D0E004C02197FE010E94D20CCA37D1073B
:10014000C9F70E94B20A0C9413120C94000081307B
:1001500019F0823079F0089561E082E00E943B0C52
:1001600060E084E00E943B0C61E087E00E943B0C71
:1001700060E00DC060E082E00E943B0C61E084E042
:100180000E943B0C60E087E00E943B0C61E088E04D
:100190000C943B0CCF93C62F682F70E083E00E9435
:1001A000770B6C2F70E085E0CF910C94770B682F64
:1001B00070E080E991E00C940905682F70E080E917
:1001C00091E00C94CD04CF92DF92EF92FF920F93C7
:1001D0001F93CF93DF9300D000D000D0CDB7DEB710
:1001E0007C018B01BA01C8010E94FD0997FD21C065
:1001F000AC016AE3C8010E94C40901966C01AC011C
:100200006BE3C8010E94C4099C01A601B801CE019C
:1002100001960E94010ACE0101960E94460ABE0183
:100220006F5F7F4FC7010E940309CE0101960E94B4
:100230006908C70126960FB6F894DEBF0FBECDBF82
:10024000DF91CF911F910F91FF90EF90DF90CF90B2
:100250000895CF93DF93EC0160E070E00E94A50960
:10026000811115C06AE871E0CE010E9494098111E4
:1002700010C064E871E0CE010E94940981110BC0A6
:100280006EE771E0CE010E949409811106C080E002
:1002900005C081E003C082E001C083E0DF91CF911F
:1002A0000895CF93DF93EC0160E070E00E94A50910
:1002B000811105C0CE01DF91CF910C94A60A60E0B8
:1002C00070E0CB01DF91CF9108950F931F93CF93EF
:1002D000DF93CDB7DEB7A9970FB6F894DEBF0FBE98
:1002E000CDBF8C0168E071E0CE0149960E94D7082D
:1002F000B801CE014F960E940309AE01475E5F4FE1
:10030000BE01615E7F4FCE0143960E94E300CE01A5
:1003100043960E9429018DA36CE071E0CE010796FF
:100320000E94D708B801CE010D960E940309AE01C4
:10033000495F5F4FBE01635F7F4FCE0101960E9410
:10034000E300CE0101960E9451016EA37FA388A70E
:1003500099A7CE0101960E946908CE010D960E94D0
:100360006908CE0107960E946908CE0143960E9453
:100370006908CE014F960E946908CE0149960E94F5
:1003800069082DA13EA14FA158A569A570E080E0A4
:1003900090E0A9960FB6F894DEBF0FBECDBFDF91F7
:1003A000CF911F910F9108954F925F926F927F921C
:1003B000AF92BF92CF92DF92EF92FF920F931F9373
:1003C000CF93DF9300D000D01F92CDB7DEB75A8312
:1003D0006B837C838D83442309F47DC0CA80DB80DA
:1003E000EC80FD80413009F03FC020E030E0A90101
:1003F000C701B6010E94E70C882309F46CC0C7014D
:10040000B6010E94EC0C2B013C011F921F921F921F
:100410008FEF8F93A12CB12C650114E6E12EF12C06
:1004200000E010E02CE93FEF4FEF5FEFC301B201B6
:100430000E942808F62E0F900F900F900F90141422
:1004400015041604170414F082E001C081E09091B5
:100450000701891721F0809307010E94A7006F2DE3
:100460008F2D0E94CA0035C0423041F520E030E0B7
:10047000A901C701B6010E94E70C882361F1C701F9
:10048000B6010E94EC0C1F921F921F9224EB2F9337
:10049000A12CB12C650114E6E12EF12C00E010E056
:1004A0002CE93FEF4FEF5FEF0E942808862F0E9454
:1004B000D7000F900F900F900F900BC0433059F45E
:1004C0006091060181E06827609306018DE00E943B
:1004D0003B0C81E001C080E00F900F900F900F90D7
:1004E0000F90DF91CF911F910F91FF90EF90DF90D0
:1004F000CF90BF90AF907F906F905F904F90089596
:1005000026E040E855E260E070E089EB91E00E946F
:10051000410661E082E00E94FF0B61E084E00E94FE
:10052000FF0B61E087E00E94FF0B61E088E00E9422
:10053000FF0B61E083E00E94FF0B61E085E00E9419
:10054000FF0B809107010E94A70061E08BE00E94F1
:10055000FF0B8BE00E94DD008AE50E94D70061E07E
:100560008DE00E94FF0B609106018DE00C943B0C26
:1005700080E991E00E94310461E171E08AE891E054
:100580000E94D70868E171E084E891E00E94D708F2
:100590006EE171E08EE791E00C94D7088EE791E070
:1005A0000E94690884E891E00E9469088AE891E065
:1005B0000C946908CF92DF92EF92FF921F93CF9332
:1005C000DF93CDB7DEB761970FB6F894DEBF0FBEED
:1005D000CDBF89EB91E00E946505181619060CF055
:1005E00071C04AE069EB71E0CE0107960E940008F5
:1005F0000E94170B6B017C01BE01695F7F4FCE012A
:1006000001960E940309CE0101960E946501942F74
:10061000752F862FA901692F0E94D401182FCE01B2
:1006200001960E94690862E371E089EB91E00E9403
:100630007407111103C06CE271E002C067E271E05F
:1006400089EB91E00E94740789EB91E00E947607A4
:100650000E94170B9B01AC012C193D094E095F0943
:1006600069017A016DE371E089EB91E00E94740702
:100670002AE030E0B701A60189EB91E00E94C307B0
:1006800089EB91E00E9476076AE471E089EB91E0E2
:100690000E94740760E472E48FE090E0A701960185
:1006A0000E94860CBA01A9012AE030E089EB91E0B2
:1006B0000E94C30789EB91E00E947607CE0107965E
:1006C0000E94690861960FB6F894DEBF0FBECDBFD9
:1006D000DF91CF911F91FF90EF90DF90CF90089521
:1006E0001F920F920FB60F9211242F933F934F93A7
:1006F0005F936F937F938F939F93AF93BF93EF938A
:10070000FF938091940187FF05C01092850010929D
:1007100084001BC020919401022E000C330B8091A9
:10072000930190E02817390784F480919401082EF2
:10073000000C990BFC01EE0FFF1F8E0F9F1FFC0199
:10074000EB56FE4F808186FD15C0809194018F5F2E
:100750008093940120919401022E000C330B809120
:10076000930190E028173907C4F4809194018C30EC
:1007700064F113C080919401082E000C990BFC01C8
:10078000EE0FFF1F8E0F9F1FFC01EB56FE4F808167
:1007900060E08F730E943B0CD8CF809184009091D1
:1007A0008500049680349C4918F480E49CE905C0D7
:1007B00080918400909185000496909389008093A5
:1007C00088008FEF809394013BC02091840030918A
:1007D000850080919401082E000C990BFC01EE0F0E
:1007E000FF1F8E0F9F1FFC01EB56FE4F81819281F0
:1007F000820F931F909389008093880080919401C9
:10080000082E000C990BFC01EE0FFF1F8E0F9F1F8F
:10081000FC01EB56FE4F808186FF12C0809194014F
:10082000082E000C990BFC01EE0FFF1F8E0F9F1F6F
:10083000FC01EB56FE4F808161E08F730E943B0C00
:10084000FF91EF91BF91AF919F918F917F916F91A8
:100850005F914F913F912F910F900FBE0F901F907E
:100860001895FC01909193019C30A0F481E0890FD0
:10087000809393019083892F90E0FC01EE0FFF1F7E
:100880008E0F9F1FFC01EB56FE4F88EB9BE092837F
:10089000818308958FEF80830895DF92EF92FF9216
:1008A0000F931F93CF93DF93EC01D62E7A0189012A
:1008B00088818C3008F068C061E08D2D0E94FF0BAC
:1008C0008881E82FF0E09F01220F331FE20FF31F12
:1008D000EB56FE4F9D2D9F732081207CD22ED92A6E
:1008E000D08220E232E02E193F0937FF02C02D5F8F
:1008F0003F4F3595279535952795298320E639E093
:10090000201B310B37FF02C02D5F3F4F35952795D8
:10091000359527952A836CE00E947A0C9CE0899F8C
:10092000B001112440E050E09B01240F351FF90174
:10093000EE0FFF1F2E0F3F1FF901EB56FE4F908168
:1009400096FD16C04F5F5F4F4C30510569F781111E
:100950000FC01092800082E0809381001092850089
:1009600010928400B19A80916F00826080936F0032
:10097000E881F0E0CF01880F991FE80FF91FEB56CF
:10098000FE4F8081806480838881DF91CF911F91A9
:100990000F91FF90EF90DF90089520E639E040E25C
:1009A00052E00C944D04FC0190819C3088F58181CB
:1009B00028E830E0281B310987FD3395220F331FCB
:1009C000220F331F6217730784F0828148E552E0DB
:1009D000481B510987FD5395440F551F440F551F60
:1009E0009B01461757070CF49A0122503109220F38
:1009F000331F4FB7F894892F90E0FC01EE0FFF1FD3
:100A00008E0F9F1FFC01EB56FE4F328321834FBF99
:100A10000895AF92BF92CF92DF92EF92FF920F9321
:100A20001F93CF93DF93EC01603282E078070CF0E4
:100A30003FC077FD06C0653B71052CF064EB70E0AC
:100A400002C060E070E0898128E830E05901A81A0E
:100A5000B10887FDB394AA0CBB1CAA0CBB1C0B2CC1
:100A6000000CCC08DD08072E000C880B990B2A819E
:100A700008E512E0021B110927FD1395000F111F55
:100A8000000F111F012E000C220B330B3F932F93ED
:100A90001F930F9314EBE12EF12C00E010E020E007
:100AA00030E0A9010E9428080F900F900F900F903E
:100AB000CE01DF91CF911F910F91FF90EF90DF90CA
:100AC000CF90BF90AF900C94D304FC01918D228DF8
:100AD000892F90E0805C9F4F821B91098F7399272B
:100AE0000895FC01918D828D981731F0828DE80F69
:100AF000F11D858D90E008958FEF9FEF0895FC0123
:100B0000918D828D981761F0828DDF01A80FB11D44
:100B10005D968C91928D9F5F9F73928F90E0089568
:100B20008FEF9FEF0895FC01538D448D252F30E00A
:100B3000842F90E0821B930B541710F0CF960895EA
:100B4000019708958EEF96E0892B49F080E090E0C0
:100B5000892B29F00E94FE0681110C940000089553
:100B6000FC01848DDF01A80FB11DA35ABF4F2C914A
:100B7000848D90E001968F739927848FA689B78919
:100B80002C93A089B1898C91837080648C93938D10
:100B9000848D981306C00288F389E02D80818F7DB3
:100BA00080830895EF92FF920F931F93CF93DF936B
:100BB000EC0181E0888F9B8D8C8D981305C0E889AE
:100BC000F989808185FD26C0F62E0B8D10E00F5F20
:100BD0001F4F0F731127E02E8C8DE8120CC00FB63B
:100BE00007FCFACFE889F989808185FFF5CFCE012E
:100BF0000E94B005F1CF8B8DFE01E80FF11DE35A85
:100C0000FF4FF0829FB7F8940B8FEA89FB898081B0
:100C100080620AC09FB7F894EE89FF896083E889F3
:100C2000F98980818370806480839FBF81E090E038
:100C3000DF91CF911F910F91FF90EF900895CF9387
:100C4000DF93EC01888D8823C9F0EA89FB898081D4
:100C500085FD05C0A889B9898C9186FD0FC00FB6A6
:100C600007FCF5CF808185FFF2CFA889B9898C91E7
:100C700085FFEDCFCE010E94B005E7CFDF91CF9188
:100C80000895CF92DF92EF92FF921F93CF93DF935D
:100C9000EC016A017B01122FE889F98982E08083E7
:100CA0004115514E61057105B1F060E079E08DE3C9
:100CB00090E0A70196010E94860CDA01C901019714
:100CC000A109B109B695A795979587959C0121151E
:100CD00080E13807A8F0E889F989108260E874E8B3
:100CE0008EE190E0A70196010E94860CDA01C9010D
:100CF0000197A109B109B695A795979587959C018C
:100D0000EC85FD853083EE85FF852083188EEC8988
:100D1000FD891083EA89FB89808180618083EA896B
:100D2000FB89808188608083EA89FB898081806873
:100D30008083EA89FB8980818F7D8083DF91CF91D9
:100D40001F91FF90EF90DF90CF9008951F920F9228
:100D50000FB60F9211242F938F939F93EF93FF93CE
:100D6000E091C901F091CA018081E091CF01F09139
:100D7000D00182FD12C090818091D2018F5F8F736C
:100D80002091D301821751F0E091D201F0E0E754B5
:100D9000FE4F958F8093D20101C08081FF91EF912A
:100DA0009F918F912F910F900FBE0F901F901895CC
:100DB0001F920F920FB60F9211242F933F934F93D0
:100DC0005F936F937F938F939F93AF93BF93EF93B3
:100DD000FF9389EB91E00E94B005FF91EF91BF91E5
:100DE000AF919F918F917F916F915F914F913F91C3
:100DF0002F910F900FBE0F901F90189589EB91E0E7
:100E00000E94650521E0892B09F420E0822F0895D6
:100E1000E9EBF1E01382128288EE93E0A0E0B0E00B
:100E200084839583A683B78381E691E09183808351
:100E300085EC90E09587848784EC90E0978786879F
:100E400080EC90E0918B808B81EC90E0938B828B97
:100E500082EC90E0958B848B86EC90E0978B868B70
:100E6000118E128E138E148E0895CF92DF92EF9210
:100E7000FF920F931F93CF93DF936C017A018B0145
:100E8000C0E0D0E0CE15DF0581F0D8016D918D0175
:100E9000D601ED91FC910190F081E02DC6010995FC
:100EA000892B11F02196EECF7E01C701DF91CF9102
:100EB0001F910F91FF90EF90DF90CF9008956115F3
:100EC000710579F0FB0101900020E9F73197AF013E
:100ED000461B570BDC01ED91FC910280F381E02D64
:100EE000099480E090E008950C945F076FE671E04C
:100EF0000C945F078F929F92AF92BF92EF92FF92F6
:100F00000F931F93CF93DF93CDB7DEB7A1970FB6A3
:100F1000F894DEBF0FBECDBF7C01FA01CB0119A250
:100F2000223008F42AE08E010F5D1F4F822E912C93
:100F3000A12CB12CBF01A50194010E94860CF901DE
:100F4000CA01015011096A3014F4605D01C0695C86
:100F5000D8016C93232B242B252B61F7B801C701F3
:100F60000E945F07A1960FB6F894DEBF0FBECDBFFB
:100F7000DF91CF911F910F91FF90EF90BF90AF90B5
:100F80009F908F9008952115310541F4DC01ED917A
:100F9000FC910190F081E02D642F09940C947A0764
:100FA0000F931F93CF93DF93EC010E940B0B688785
:100FB00079878A879B87E881F9810284F385E02D10
:100FC000CE01099597FF17C00E940B0B0885198564
:100FD0002A853B85DC01CB01801B910BA20BB30B57
:100FE0000C811D812E813F8180179107A207B307D5
:100FF00010F38FEF9FEFDF91CF911F910F91089525
:10100000EF92FF920F931F93CF93DF93EC017B013D
:10101000042F61E771E00E94D708C7010E94D00742
:10102000002E000C110B97FD0BC08017910741F0AB
:10103000682FCE010E945109C7010E94D007F3CF4B
:10104000CE01DF91CF911F910F91FF90EF90089506
:101050004F925F926F927F92AF92BF92CF92DF9248
:10106000EF92FF920F931F93CF93DF93CDB7DEB72D
:1010700029013A019B01AC01241935094609570998
:1010800089899A89AB89BC89BC01CD016A197B0920
:101090008C099D090E946A0CA80197012419350941
:1010A000460957090E94A80CCA01B9016A0D7B1DA7
:1010B0008C1D9D1DDF91CF911F910F91FF90EF909F
:1010C000DF90CF90BF90AF907F906F905F904F90E8
:1010D0000895FC01808191810C94D90ECF93DF9308
:1010E000EC0188819981009711F00E94D90E198234
:1010F00018821D821C821B821A82DF91CF91089573
:101100000F931F93CF93DF93EC018B016F5F7F4FA2
:10111000888199810E94620F009731F099838883BA
:101120001B830A8381E001C080E0DF91CF911F9192
:101130000F910895CF93DF93EC0188819981892BDA
:1011400029F08A819B818617970760F4CE010E945F
:101150008008882341F08C819D81892B19F4E881D6
:10116000F981108281E0DF91CF910895EF92FF9293
:101170000F931F93CF93DF93EC017B018A01BA0198
:101180000E949A08811104C0CE010E946E0807C017
:101190001D830C83B701888199810E945210CE0172
:1011A000DF91CF911F910F91FF90EF900895FC0177
:1011B00011821082138212821582148261157105C8
:1011C00051F0FB0101900020E9F73197AF01461B78
:1011D000570B0C94B6080895CF93DF93EC01FB01F5
:1011E0008617970761F0608171816115710529F09B
:1011F000448155810E94B60802C00E946E08CE014B
:10120000DF91CF910895FC01118210821382128226
:10121000158214820C94EC08CF93DF93EC016115D6
:10122000710559F0FB0101900020E9F73197AF01FA
:10123000461B570B0E94B60802C00E946E08CE01E2
:10124000DF91CF910895EF92FF920F931F93CF9369
:10125000DF936115710511F480E01CC04115510543
:10126000C1F07B01EC018C819D818A01080F191F5F
:10127000B801CE010E949A08882371F32881398130
:101280008C819D81B701820F931F0E9452101D8394
:101290000C8381E0DF91CF911F910F91FF90EF9030
:1012A0000895CF93DF9300D0CDB7DEB769831A825C
:1012B00041E050E0BE016F5F7F4F0E9423090F9015
:1012C0000F90DF91CF910895CF93DF93DC01ED91E3
:1012D000FC91EB01A881B981309711F01097C9F406
:1012E000109759F0EB012C813D81232B31F08C912B
:1012F00090E091958195910914C0309781F0DC01BF
:1013000014968D919C911597892B49F0808190E0DE
:1013100008C0BD01CF01DF91CF910C94491080E04E
:1013200090E0DF91CF910895FC0144815581FB014C
:10133000248135814217530729F40E94640921E072
:10134000892B09F020E0822F0895FC01248135814A
:10135000232B31F421E061157105A1F0FB0108C0D8
:10136000FC01808191816115710531F421E0FC015E
:101370008081882339F005C00E94491021E0892B23
:1013800009F020E0822F0895CF93DF93FC012481A0
:1013900035814217530778F4C081D181062E000CA5
:1013A000770BCE01840F951F0E943E10009719F015
:1013B0008C1B9D0B02C08FEF9FEFDF91CF910895A3
:1013C000CF93DF93FC01248135814217530780F4CA
:1013D000FB01DC01CD91DC9160817181CE01840F34
:1013E000951F0E945910009719F08C1B9D0B02C08D
:1013F0008FEF9FEFDF91CF91089540E050E00C9484
:10140000E009BF92CF92DF92EF92FF920F931F936A
:10141000CF93DF937C016B018A01E9012417350723
:1014200020F4812F8901C42FD82F61E771E0C70113
:101430000E94D708D60114968D919C911597081794
:101440001907C8F48C179D0708F4EC01D601ED913B
:10145000FC911197EC0FFD1FB08010826D917C9173
:10146000600F711FC7010E940C09D601ED91FC911C
:10147000EC0FFD1FB082C701DF91CF911F910F913B
:10148000FF90EF90DF90CF90BF900895AF92BF9202
:10149000CF92DF92EF92FF920F931F93CF93DF9340
:1014A000DC01CD90DC901197C114D10409F443C044
:1014B0001496CD91DC9115972097E9F18C01760176
:1014C0005701BFEFAB1ABB0AF7018081082E000C51
:1014D000990B0E942C10892B11F07501F1CF2197E7
:1014E000CC0DDD1D8881082E000C990B0E942C105C
:1014F000892B29F0CE15DF0510F02197F3CFAE012F
:101500004F5F5F4F4E195F09D80115965C934E935C
:101510001497CE14DF0420F4B701C6010E943510E1
:10152000D801ED91FC91119714968D919C9115978E
:10153000E80FF91F1082DF91CF911F910F91FF905B
:10154000EF90DF90CF90BF90AF900895FC01808125
:101550009181009711F00C94281060E070E0CB01AD
:10156000089508950E943C0B0E94B10A0E948002D7
:10157000C2EAD5E00E94DA022097E1F30E94A205B8
:10158000F9CF1F920F920FB60F9211242F933F9312
:101590008F939F93AF93BF9380915702909158027E
:1015A000A0915902B0915A023091560223E0230FC4
:1015B0002D3720F40196A11DB11D05C026E8230F8B
:1015C0000296A11DB11D209356028093570290935D
:1015D0005802A0935902B0935A0280915B029091F5
:1015E0005C02A0915D02B0915E020196A11DB11D49
:1015F00080935B0290935C02A0935D02B0935E02C5
:10160000BF91AF919F918F913F912F910F900FBEFE
:101610000F901F9018952FB7F89460915702709112
:1016200058028091590290915A022FBF08953FB7F6
:10163000F89480915B0290915C02A0915D02B09160
:101640005E0226B5A89B05C02F3F19F00196A11D8B
:10165000B11D3FBFBA2FA92F982F8827820F911D48
:10166000A11DB11DBC01CD0142E0660F771F881F8F
:10167000991F4A95D1F70895789484B5826084BD06
:1016800084B5816084BD85B5826085BD85B5816086
:1016900085BDEEE6F0E0808181608083E1E8F0E0E6
:1016A0001082808182608083808181608083E0E815
:1016B000F0E0808181608083E1EBF0E080818460F4
:1016C0008083E0EBF0E0808181608083EAE7F0E0F6
:1016D000808184608083808182608083808181605A
:1016E00080838081806880831092C10008951F9359
:1016F000CF93DF93182FEB0161E00E94FF0B20973F
:1017000011F460E004C0CF3FD10539F461E0812FCE
:10171000DF91CF911F910C943B0CE12FF0E0ED5540
:10172000FF4FE491E330F9F048F4E130B9F0E230F2
:10173000A1F584B5806284BDC8BD34C0E730E9F04E
:10174000E83019F1E43049F580918000806280939F
:101750008000D0938B00C0938A0024C084B5806839
:1017600084BDC7BD1FC080918000806880938000C9
:10177000D0938900C093880015C08091B000806824
:101780008093B000C093B3000DC08091B000806220
:101790008093B000C093B40005C0C038D1050CF0F0
:1017A000B5CFAFCFDF91CF911F910895833081F0F6
:1017B00028F4813099F08230A1F008958730A9F0A3
:1017C0008830B9F08430D1F4809180008F7D03C0DF
:1017D000809180008F7780938000089584B58F7703
:1017E00002C084B58F7D84BD08958091B0008F774D
:1017F00003C08091B0008F7D8093B0000895CF9397
:10180000DF9390E0FC01E954FF4F2491FC01E55384
:10181000FF4F8491882361F190E0880F991FFC01AC
:10182000E751FF4FC591D491FC01E152FF4FA591C3
:10183000B491611109C09FB7F894888120958223E3
:101840008883EC912E230BC0623061F49FB7F8942B
:101850008881322F309583238883EC912E2B2C9313
:101860009FBF06C08FB7F894E8812E2B28838FBFC7
:10187000DF91CF9108951F93CF93DF93282F30E00E
:10188000F901ED55FF4F8491F901E954FF4FD491CF
:10189000F901E553FF4FC491CC23C1F0162F8111FC
:1018A0000E94D60BEC2FF0E0EE0FFF1FE152FF4F2E
:1018B000A591B4919FB7F894111104C08C91D09563
:1018C000D82302C0EC91DE2BDC939FBFDF91CF9138
:1018D0001F910895DB018F939F930E94C70CBF91C6
:1018E000AF91A29F800D911DA39F900DB29F900D6F
:1018F00011240895991B79E004C0991F961708F0E8
:10190000961B881F7A95C9F780950895A1E21A2E33
:10191000AA1BBB1BFD010DC0AA1FBB1FEE1FFF1F93
:10192000A217B307E407F50720F0A21BB30BE40BE3
:10193000F50B661F771F881F991F1A9469F760952A
:101940007095809590959B01AC01BD01CF010895E4
:10195000052E97FB1EF400940E94BF0C57FD07D084
:101960000E94860C07FC03D04EF40C94BF0C5095DB
:101970004095309521953F4F4F4F5F4F089590957B
:101980008095709561957F4F8F4F9F4F08950E946E
:10199000D80CA59F900DB49F900DA49F800D911D14
:1019A00011240895EE0FFF1F0590F491E02D099486
:1019B000A29FB001B39FC001A39F700D811D112490
:1019C000911DB29F700D811D1124911D08950E94DB
:1019D0005F0D08F481E008950E94F30C6894B11142
:1019E0000C94CE0D08950E94B30D88F09F5798F087
:1019F000B92F9927B751B0F0E1F0660F771F881F14
:101A0000991F1AF0BA95C9F714C0B13091F00E942D
:101A1000CD0DB1E008950C94CD0D672F782F882758
:101A2000B85F39F0B93FCCF3869577956795B39554
:101A3000D9F73EF490958095709561957F4F8F4FC3
:101A40009F4F0895E89409C097FB3EF490958095C8
:101A5000709561957F4F8F4F9F4F9923A9F0F92F74
:101A600096E9BB279395F695879577956795B795F2
:101A7000F111F8CFFAF4BB0F11F460FF1BC06F5FD8
:101A80007F4F8F4F9F4F16C0882311F096E911C0EA
:101A9000772321F09EE8872F762F05C0662371F00B
:101AA00096E8862F70E060E02AF09A95660F771F1F
:101AB000881FDAF7880F9695879597F90895990FFB
:101AC0000008550FAA0BE0E8FEEF16161706E80708
:101AD000F907C0F012161306E407F50798F0621B29
:101AE000730B840B950B39F40A2661F0232B242BFE
:101AF000252B21F408950A2609F4A140A6958FEF1D
:101B0000811D811D089597F99F6780E870E060E06E
:101B100008959FEF80EC089500240A941616170686
:101B200018060906089500240A94121613061406CE
:101B300005060895092E0394000C11F4882352F031
:101B4000BB0F40F4BF2B11F460FF04C06F5F7F4FE9
:101B50008F4F9F4F089557FD9058440F551F59F0D0
:101B60005F3F71F04795880F97FB991F61F09F3F8A
:101B700079F087950895121613061406551FF2CFB3
:101B80004695F1DF08C0161617061806991FF1CF03
:101B900086957105610508940895E894BB2766272A
:101BA0007727CB0197F908950E94E70D0C949A0DC1
:101BB0000E948C0D38F00E94930D20F0952311F0B7
:101BC0000C94830D0C94890D11240C94CE0D0E945D
:101BD000AB0D70F3959FC1F3950F50E0551F629FB9
:101BE000F001729FBB27F00DB11D639FAA27F00D76
:101BF000B11DAA1F649F6627B00DA11D661F829F9D
:101C00002227B00DA11D621F739FB00DA11D621F81
:101C1000839FA00D611D221F749F3327A00D611D9E
:101C2000231F849F600D211D822F762F6A2F112480
:101C30009F5750409AF0F1F088234AF0EE0FFF1FB3
:101C4000BB1F661F771F881F91505040A9F79E3F0A
:101C5000510580F00C94830D0C94CE0D5F3FE4F39E
:101C6000983ED4F3869577956795B795F795E79560
:101C70009F5FC1F7FE2B880F911D9695879597F969
:101C800008950F931F93CF93DF938230910510F443
:101C900082E090E0E0916102F091620220E030E0A9
:101CA000A0E0B0E0309719F14081518102811381A9
:101CB00048175907C8F08417950769F4109731F051
:101CC00012960C93129713961C9327C000936102EF
:101CD0001093620222C02115310519F042175307F3
:101CE00018F49A01BD01EF01DF01F801DBCF2115E6
:101CF0003105F9F0281B390B2430310580F48A8135
:101D00009B816115710521F0FB019383828304C0DF
:101D10009093620280936102FE01329644C0FE01FC
:101D2000E20FF31F81939193225031093983288365
:101D30003AC020915F0230916002232B41F4209140
:101D40000201309103013093600220935F022091E1
:101D50000001309101012115310541F42DB73EB745
:101D60004091040150910501241B350BE0915F0265
:101D7000F0916002E217F307A0F42E1B3F0B281727
:101D8000390778F0AC014E5F5F4F2417350748F0F4
:101D90004E0F5F1F5093600240935F0281939193B7
:101DA00002C0E0E0F0E0CF01DF91CF911F910F91F1
:101DB0000895CF93DF93009709F481C0FC01329717
:101DC00013821282A0916102B0916202109781F495
:101DD00020813181820F931F20915F023091600238
:101DE0002817390751F5F0936002E0935F0267C04E
:101DF000ED0120E030E0CE17DF0740F44A815B813F
:101E00009E0141155105F1F0EA01F5CFD383C2835C
:101E100040815181840F951FC817D90759F48881D3
:101E20009981840F951F0296918380838A819B817B
:101E3000938382832115310529F4F0936202E093A4
:101E400061023DC0E901FB83EA8349915991C40FC6
:101E5000D51FEC17FD0761F480819181840F951FD8
:101E60000296E90199838883828193819B838A8387
:101E7000E0E0F0E012968D919C911397009719F095
:101E8000FD01DC01F7CF8D919C9111979D012E5F93
:101E90003F4F820F931F20915F02309160022817FD
:101EA000390769F4309729F41092620210926102A6
:101EB00002C013821282B0936002A0935F02DF918E
:101EC000CF910895A0E0B0E0E8E6FFE00C94E011C7
:101ED000EC01009721F4CB010E94410EB4C0FC013B
:101EE000E60FF71F9C0122503109E217F30708F4AF
:101EF000A8C0D9010D911C91119706171707B0F0D2
:101F00000530110508F49BC0C80104978617970790
:101F100008F495C002501109061B170B0193119389
:101F20006D937C93CF010E94D90E89C05B01A01AEA
:101F3000B10A4C01800E911EA0916102B091620223
:101F4000612C712CE12CF12C109709F446C08D9175
:101F50009C911197A815B905B1F56C0142E0C40E2A
:101F6000D11CCA14DB0478F14C018A189B08640167
:101F700042E0C40ED11C1296BC9012971396AC91FD
:101F8000B5E0CB16D10440F0B282A3839182808267
:101F9000D9016D937C9309C00E5F1F4F800F911F75
:101FA000F90191838083EB2DFA2FE114F10431F0D4
:101FB000D7011396FC93EE93129741C0F0936202FF
:101FC000E09361023CC06816790608F43C017D018B
:101FD00012960D90BC91A02DB7CF80915F02909189
:101FE000600288169906E1F466167706C8F48091B7
:101FF000000190910101009741F48DB79EB7409187
:10200000040150910501841B950BE817F907C8F4EA
:10201000F0936002E0935F02F901718360830FC067
:10202000CB010E94410E7C01009759F0A801BE012E
:102030000E943510CE010E94D90EC70104C0CE0106
:1020400002C080E090E0CDB7DEB7EEE00C94FC116A
:10205000662777270C94731091110C94C11180326C
:1020600019F089508550C8F70895FB01DC0102C0C2
:1020700001900D9241505040D8F70895FC01819194
:10208000861721F08823D9F7992708953197CF0132
:102090000895FB01DC018D91019080190110D9F3A5
:1020A000990B0895FB01DC0101900D920020E1F7EE
:1020B0000895FB0151915523A9F0BF01DC014D9119
:1020C00045174111E1F759F4CD010190002049F085
:1020D0004D9140154111C9F3FB014111EFCF81E052
:1020E00090E001970895A0E0B0E0E9E7F0E10C94FA
:1020F000E211EC016B016115710519F0FB0191838F
:1021000080837E01FFEFEF1AFF0A0881802F90E0A5
:102110000E942C10892B11F0E701F3CF0D3239F416
:102120007E0182E0E80EF11C098111E008C00B324B
:1021300029F47E0192E0E90EF11C098110E0E7012B
:10214000219743E050E060E770E0CE010E94C411A7
:10215000892BC1F4239645E050E06BE670E0CE0198
:102160000E94C411892B09F42596C114D10419F0D9
:10217000F601D183C0831111F6C060E070E080E801
:102180009FE7FAC043E050E068E670E0CE010E94AD
:10219000C411892B59F4C114D10409F4E9C0F2E047
:1021A000EF0EF11CF601F182E082E2C020E030E0A7
:1021B000A901C0E0D0E0F70180EDA82EA00E89E0D3
:1021C0008A1530F1912F9260B92E812F887012FFFD
:1021D00004C0811124C0219622C081112197A5E05D
:1021E000B0E00E94C70CDC01CB01880F991FAA1F29
:1021F000BB1F9C01AD012A0D311D411D511D283908
:1022000089E93807480789E1580748F0166006C091
:102210009EEFA9120AC013FD40C01860B12E8FEFC7
:10222000E81AF80A00811B2DC6CF802F8F7D8534D8
:10223000A1F580818D3211F4106106C08B3221F03E
:10224000319661E070E004C08181329662E070E016
:1022500080538A3018F0E61BF70B1FC060E070E077
:1022600060389CE079075CF4DB01AA0FBB1FAA0F62
:10227000BB1F6A0F7B1F660F771F680F711D31969A
:10228000DF0111978C9180538A3050F314FF03C003
:10229000719561957109C60FD71F11FF08C0C11450
:1022A000D10429F0CF010197F60191838083CA01FF
:1022B000B9010E94220D212F2370233019F04B0108
:1022C0005C0106C04B015C01B7FAB094B7F8B0945A
:1022D00020E030E0A901C501B4010E94E70C882389
:1022E00009F43EC0D7FF06C0D195C195D10907E8D2
:1022F00010E002C00FE910E06801F8E1CF1AD10840
:1023000090E2E92EF12CCE15DF0574F0F80125914D
:10231000359145915491C501B4010E94D40D4B01F2
:102320005C01CE19DF09EFCF04501109F594E79451
:102330000C151D0541F78A2D880F8B2D881F8F3FA7
:1023400049F020E030E0A901C501B4010E94E70C8A
:10235000811106C082E290E0909364028093630250
:10236000C501B40109C060E070E080E89FEF04C0DF
:1023700060E070E080EC9FE7CDB7DEB7ECE00C9456
:10238000FE11992788270895FB01DC014150504038
:1023900088F08D9181341CF08B350CF4805E659152
:1023A00061341CF06B350CF4605E861B611171F3B7
:1023B000990B0895881BFCCF2F923F924F925F920A
:1023C0006F927F928F929F92AF92BF92CF92DF9245
:1023D000EF92FF920F931F93CF93DF93CDB7DEB7AA
:1023E000CA1BDB0B0FB6F894DEBF0FBECDBF09943E
:1023F0002A88398848885F846E847D848C849B8495
:10240000AA84B984C884DF80EE80FD800C811B81A2
:10241000AA81B981CE0FD11D0FB6F894DEBF0FBED1
:10242000CDBFED01089510E0CCE7D0E004C0FE017F
:102430000E94D20C2196CD37D107C9F7F894FFCF6F
:102440000000650280000101636D640064617461D5
:1024500000656E67696E6500736572766F006C6902
:10246000676874696E6700545255450046414C5385
:10247000450045786563757465643A200044656C71
:1024800074612054696D653A2000436F756E742045
:10249000696E207365636F6E64733A2000000000FC
:1024A00000D205350793051F0665057F0571050DEB
:0E24B0000A006E616E00696E66006F7666004F
:00000001FF
