:100000000C945F000C9487000C9487000C9487007C
:100010000C9487000C9487000C9487000C94870044
:100020000C9487000C9487000C9487000C949F0319
:100030000C9487000C9487000C9487000C94870024
:100040000C94D50A0C9487000C94D5060C940707E1
:100050000C9487000C9487000C9487000C94870004
:100060000C9487000C948700000000080002010037
:100070000003040700000000000000000102040863
:100080001020408001020408102001020408102002
:10009000040404040404040402020202020203032E
:1000A0000303030300000000250028002B000000CC
:1000B0000000240027002A00A6023707C2021124EC
:1000C0001FBECFEFD8E0DEBFCDBF11E0A0E0B1E0B2
:1000D000E0EFFFE102C005900D92A239B107D9F718
:1000E00022E0A2E9B1E001C01D92AE37B207E1F70C
:1000F00010E0CEE5D0E004C02197FE010E94E60C9E
:10010000CC35D107C9F70E94C60A0C94EB0F0C94AA
:10011000000061E088E00E944F0C60E084E00E94F3
:100120004F0C61E087E00E944F0C60E088E00C9487
:100130004F0C813019F0823019F008950C94890029
:1001400060E088E00E944F0C61E084E00E944F0C68
:1001500060E087E00E944F0C61E088E00C944F0C57
:10016000CF93C62F682F70E088E00E948B0B6C2F16
:1001700070E085E0CF910C948B0B682F70E08BEAD8
:1001800091E00C943805682F70E08BEA91E00C94B4
:10019000FC04CF92DF92EF92FF920F931F93CF93C5
:1001A000DF9300D000D000D0CDB7DEB77C018B014B
:1001B000BA01C8010E94110A97FD21C0AC016AE38F
:1001C000C8010E94D80901966C01AC016BE3C8011B
:1001D0000E94D8099C01A601B801CE0101960E9497
:1001E000150ACE0101960E945A0ABE016F5F7F4F29
:1001F000C7010E94CF08CE0101960E943508C701B1
:1002000026960FB6F894DEBF0FBECDBFDF91CF911B
:100210001F910F91FF90EF90DF90CF900895CF93B3
:10022000DF93EC0160E070E00E94B90981111CC00D
:1002300065EA71E0CE010E94A809811117C06FE93B
:1002400071E0CE010E94A809811112C069E971E034
:10025000CE010E94A80981110DC063E971E0CE01B1
:100260000E94A809811108C080E007C081E005C094
:1002700082E003C083E001C084E0DF91CF91089564
:10028000CF93DF93EC0160E070E00E94B909811127
:1002900005C0CE010E94BA0ACB0102C081EF98EDE1
:1002A000DF91CF910895FF920F931F93CF93DF9328
:1002B000CDB7DEB7A4970FB6F894DEBF0FBECDBFA3
:1002C0008C0166E071E0CE0149960E94A308B80156
:1002D000CE014F960E94CF08AE01475E5F4FBE0130
:1002E000615E7F4FCE0143960E94C900CE014396C6
:1002F0000E940F01F82E69E071E0CE0107960E947E
:10030000A308B801CE010D960E94CF08AE01495F47
:100310005F4FBE01635F7F4FCE0101960E94C9000F
:10032000CE0101960E9440018C01CE0101960E94EF
:100330003508CE010D960E943508CE0107960E9421
:100340003508CE0143960E943508CE014F960E9493
:100350003508CE0149960E9435086F2D702F812FE8
:10036000A4960FB6F894DEBF0FBECDBFDF91CF913C
:100370001F910F91FF900895272F382F662339F092
:1003800020583F4F81E02F3F310511F008F080E009
:1003900008954F925F926F927F92AF92BF92CF92E9
:1003A000DF92EF92FF920F931F93CF93472E582E19
:1003B000052C000C660877081F921F921F928FEF82
:1003C0008F93A12CB12C650114E6E12EF12C00E0F5
:1003D00010E02CE93FEF4FEF5FEFC301B2010E9445
:1003E000F407C62F0F900F900F900F901414150460
:1003F0001604170414F082E001C081E00E94990005
:100400006C2F8C2F0E94B00081E0CF911F910F9133
:10041000FF90EF90DF90CF90BF90AF907F906F9064
:100420005F904F900895AF92BF92CF92DF92EF927C
:10043000FF920F931F93672F782F072E000C880BC6
:10044000990B1F921F921F9224EB2F93A12CB12C7A
:10045000650114E6E12EF12C00E010E02CE93FEFFD
:100460004FEF5FEF0E94F407862F0E94BD000F90B0
:100470000F900F900F9081E01F910F91FF90EF90E0
:10048000DF90CF90BF90AF900895272F382F61E075
:10049000121613060CF060E08DE00E944F0C81E014
:1004A0000895623059F028F46130C9F461E00C9489
:1004B000C901633031F0643039F011C062E00C944E
:1004C000130263E00C944502272F382F81E01216A7
:1004D00013060CF080E08093920181E0089580E0A3
:1004E000089526E040E855E260E070E084ED91E098
:1004F0000E94700661E088E00E94130C61E084E0D5
:100500000E94130C61E087E00E94130C61E088E018
:100510000E94130C61E088E00E94130C61E085E00A
:100520000E94130C0E94890061E08BE00E94130C72
:100530008BE00E94C3008AE50E94BD0061E08DE06F
:100540000E94130C60E08DE00C944F0C8BEA91E05C
:100550000E9460046BE171E085EA91E00E94A308CB
:100560006CE071E08FE991E00E94A3086EE071E019
:1005700089E991E00E94A30860E171E083E991E0DC
:100580000C94A30883E991E00E94350889E991E081
:100590000E9435088FE991E00E94350885EA91E0D4
:1005A0000C9435088F929F92AF92BF92CF92DF92B8
:1005B000EF92FF921F93CF93DF93CDB7DEB72C97C7
:1005C0000FB6F894DEBF0FBECDBF84ED91E00E9460
:1005D0009405181619060CF0A0C04AE064ED71E00D
:1005E000CE0107960E94CC07BE01695F7F4FCE0106
:1005F00001960E94CF08CE0101960E9453016B0123
:10060000E82ECE0101960E9435088E2DB6010E947B
:10061000BC01882309F455C00E942B0B4B015C01DF
:100620008E2DB6010E945102182F0E942B0B6B01D8
:100630007C0180919201882309F46BC06DE171E027
:10064000CE0101960E94A308BE01695F7F4FCE01D3
:1006500001960E941D0965E271E0CE0101960E949B
:100660002409111103C067E171E002C062E171E089
:10067000CE0101960E94240961E371E0CE0101964A
:100680000E942409C818D908EA08FB08B701A60186
:10069000CE0101960E9446096FE371E0CE010196FA
:1006A0000E94240960E472E48FE090E0A7019601C3
:1006B0000E94BC0CBA01A901CE0101960E94460914
:1006C00017C080919201882321F16DE171E0CE0184
:1006D00001960E94A308BE01695F7F4FCE0101967B
:1006E0000E941D096DE671E0CE0101960E94240969
:1006F00066E571E0CE0101960E942409BE016F5F9C
:100700007F4F84ED91E00E948E07CE0101960E94FA
:100710003508CE0107960E9435082C960FB6F8943E
:10072000DEBF0FBECDBFDF91CF911F91FF90EF9045
:10073000DF90CF90BF90AF909F908F9008951F92C1
:100740000F920FB60F9211242F933F934F935F9305
:100750006F937F938F939F93AF93BF93EF93FF9389
:100760008091AF0187FF05C0109285001092840030
:100770001BC02091AF01022E000C330B8091AE0103
:1007800090E02817390784F48091AF01082E000CFF
:10079000990BFC01EE0FFF1F8E0F9F1FFC01E05510
:1007A000FE4F808186FD15C08091AF018F5F8093E1
:1007B000AF012091AF01022E000C330B8091AE01EE
:1007C00090E028173907C4F48091AF018C3064F1B0
:1007D00013C08091AF01082E000C990BFC01EE0FA5
:1007E000FF1F8E0F9F1FFC01E055FE4F808160E0D0
:1007F0008F730E944F0CD8CF809184009091850018
:10080000049680349C4918F480E49CE905C08091EA
:1008100084009091850004969093890080938800CD
:100820008FEF8093AF013BC0209184003091850011
:100830008091AF01082E000C990BFC01EE0FFF1FF9
:100840008E0F9F1FFC01E055FE4F81819281820F28
:10085000931F90938900809388008091AF01082EA8
:10086000000C990BFC01EE0FFF1F8E0F9F1FFC0168
:10087000E055FE4F808186FF12C08091AF01082EA7
:10088000000C990BFC01EE0FFF1F8E0F9F1FFC0148
:10089000E055FE4F808161E08F730E944F0CFF9105
:1008A000EF91BF91AF919F918F917F916F915F91E8
:1008B0004F913F912F910F900FBE0F901F90189561
:1008C000FC019091AE019C30A0F481E0890F8093EF
:1008D000AE019083892F90E0FC01EE0FFF1F8E0F79
:1008E0009F1FFC01E055FE4F88EB9BE092838183C4
:1008F00008958FEF80830895DF92EF92FF920F9318
:100900001F93CF93DF93EC01D62E7A018901888162
:100910008C3008F068C061E08D2D0E94130C888136
:10092000E82FF0E09F01220F331FE20FF31FE05585
:10093000FE4F9D2D9F732081207CD22ED92AD082FC
:1009400020E232E02E193F0937FF02C02D5F3F4FF2
:100950003595279535952795298320E639E0201B85
:10096000310B37FF02C02D5F3F4F359527953595E9
:1009700027952A836CE00E948E0C9CE0899FB00131
:10098000112440E050E09B01240F351FF901EE0FC8
:10099000FF1F2E0F3F1FF901E055FE4F908196FD7E
:1009A00016C04F5F5F4F4C30510569F781110FC082
:1009B0001092800082E08093810010928500109256
:1009C0008400B19A80916F00826080936F00E8810B
:1009D000F0E0CF01880F991FE80FF91FE055FE4F97
:1009E0008081806480838881DF91CF911F910F91F6
:1009F000FF90EF90DF90089520E639E040E252E06A
:100A00000C947C04FC0190819C3088F5818128E85D
:100A100030E0281B310987FD3395220F331F220F49
:100A2000331F6217730784F0828148E552E0481B48
:100A3000510987FD5395440F551F440F551F9B01C6
:100A4000461757070CF49A0122503109220F331F21
:100A50004FB7F894892F90E0FC01EE0FFF1F8E0F27
:100A60009F1FFC01E055FE4F328321834FBF089545
:100A7000AF92BF92CF92DF92EF92FF920F931F93AC
:100A8000CF93DF93EC01603282E078070CF03FC037
:100A900077FD06C0653B71052CF064EB70E002C089
:100AA00060E070E0898128E830E05901A81AB108B7
:100AB00087FDB394AA0CBB1CAA0CBB1C0B2C000C0E
:100AC000CC08DD08072E000C880B990B2A8108E55D
:100AD00012E0021B110927FD1395000F111F000FD3
:100AE000111F012E000C220B330B3F932F931F93EA
:100AF0000F9314EBE12EF12C00E010E020E030E049
:100B0000A9010E94F4070F900F900F900F90CE0153
:100B1000DF91CF911F910F91FF90EF90DF90CF90D9
:100B2000BF90AF900C940205FC01918D228D892F0E
:100B300090E0805C9F4F821B91098F7399270895E5
:100B4000FC01918D828D981731F0828DE80FF11D97
:100B5000858D90E008958FEF9FEF0895FC01918DB2
:100B6000828D981761F0828DDF01A80FB11D5D960F
:100B70008C91928D9F5F9F73928F90E008958FEF7D
:100B80009FEF0895FC01538D448D252F30E0842F75
:100B900090E0821B930B541710F0CF9608950197A5
:100BA00008958DE297E0892B49F080E090E0892B51
:100BB00029F00E942D0781110C9400000895FC017A
:100BC000848DDF01A80FB11DA35ABF4F2C91848DD6
:100BD00090E001968F739927848FA689B7892C930B
:100BE000A089B1898C91837080648C93938D848D5E
:100BF000981306C00288F389E02D80818F7D808361
:100C00000895EF92FF920F931F93CF93DF93EC0120
:100C100081E0888F9B8D8C8D981305C0E889F989B8
:100C2000808185FD26C0F62E0B8D10E00F5F1F4FD3
:100C30000F731127E02E8C8DE8120CC00FB607FC45
:100C4000FACFE889F989808185FFF5CFCE010E942E
:100C5000DF05F1CF8B8DFE01E80FF11DE35AFF4F49
:100C6000F0829FB7F8940B8FEA89FB8980818062BC
:100C70000AC09FB7F894EE89FF896083E889F989F3
:100C800080818370806480839FBF81E090E0DF91EA
:100C9000CF911F910F91FF90EF900895CF93DF9325
:100CA000EC01888D8823C9F0EA89FB89808185FD64
:100CB00005C0A889B9898C9186FD0FC00FB607FCC5
:100CC000F5CF808185FFF2CFA889B9898C9185FF06
:100CD000EDCFCE010E94DF05E7CFDF91CF910895E0
:100CE000CF92DF92EF92FF921F93CF93DF93EC01AD
:100CF0006A017B01122FE889F98982E0808341151E
:100D0000514E61057105B1F060E079E08DE390E04E
:100D1000A70196010E949A0CDA01C9010197A10965
:100D2000B109B695A795979587959C01211580E106
:100D30003807A8F0E889F989108260E874E88EE144
:100D400090E0A70196010E949A0CDA01C90101976F
:100D5000A109B109B695A795979587959C01EC8552
:100D6000FD853083EE85FF852083188EEC89FD8913
:100D70001083EA89FB89808180618083EA89FB890D
:100D8000808188608083EA89FB8980818068808394
:100D9000EA89FB8980818F7D8083DF91CF911F91CC
:100DA000FF90EF90DF90CF9008951F920F920FB6B3
:100DB0000F9211242F938F939F93EF93FF93E091C2
:100DC000E401F091E5018081E091EA01F091EB010D
:100DD00082FD12C090818091ED018F5F8F73209111
:100DE000EE01821751F0E091ED01F0E0EC52FE4F80
:100DF000958F8093ED0101C08081FF91EF919F91CC
:100E00008F912F910F900FBE0F901F9018951F92EA
:100E10000F920FB60F9211242F933F934F935F932E
:100E20006F937F938F939F93AF93BF93EF93FF93B2
:100E300084ED91E00E94DF05FF91EF91BF91AF91AA
:100E40009F918F917F916F915F914F913F912F91E2
:100E50000F900FBE0F901F90189584ED91E00E94A7
:100E6000940521E0892B09F420E0822F0895E4ED18
:100E7000F1E01382128288EE93E0A0E0B0E0848378
:100E80009583A683B78383E891E09183808385EC83
:100E900090E09587848784EC90E09787868780EC44
:100EA00090E0918B808B81EC90E0938B828B82EC35
:100EB00090E0958B848B86EC90E0978B868B118EDF
:100EC000128E138E148E0895CF92DF92EF92FF92BE
:100ED0000F931F93CF93DF936C017A018B01C0E0D6
:100EE000D0E0CE15DF0581F0D8016D918D01D601DE
:100EF000ED91FC910190F081E02DC6010995892BBF
:100F000011F02196EECF7E01C701DF91CF911F91A5
:100F10000F91FF90EF90DF90CF900895DB01149632
:100F20004D915C9115976D917C91DC01ED91FC9157
:100F30000280F381E02D09940F931F93CF93DF93E9
:100F4000EC010E941F0B688779878A879B87E8815D
:100F5000F9810284F385E02DCE01099597FF17C032
:100F60000E941F0B088519852A853B85DC01CB0172
:100F7000801B910BA20BB30B0C811D812E813F8135
:100F800080179107A207B30710F38FEF9FEFDF9150
:100F9000CF911F910F910895EF92FF920F931F939E
:100FA000CF93DF93EC017B01042F6CE671E00E948C
:100FB000A308C7010E949C07002E000C110B97FD8F
:100FC0000BC08017910741F0682FCE010E943309B2
:100FD000C7010E949C07F3CFCE01DF91CF911F91F3
:100FE0000F91FF90EF9008954F925F926F927F92D2
:100FF000AF92BF92CF92DF92EF92FF920F931F9327
:10100000CF93DF93CDB7DEB729013A019B01AC0145
:10101000241935094609570989899A89AB89BC89F8
:10102000BC01CD016A197B098C099D090E947E0CC7
:10103000A801970124193509460957090E94BC0CDB
:10104000CA01B9016A0D7B1D8C1D9D1DDF91CF91D9
:101050001F910F91FF90EF90DF90CF90BF90AF90D6
:101060007F906F905F904F900895FC0180819181F7
:101070000C94930DCF93DF93EC01888199810097B5
:1010800011F00E94930D198218821D821C821B820E
:101090001A82DF91CF9108950F931F93CF93DF931F
:1010A000EC018B016F5F7F4F888199810E941C0E3C
:1010B000009731F0998388831B830A8381E001C004
:1010C00080E0DF91CF911F910F910895CF93DF932F
:1010D000EC0188819981892B29F08A819B8186176F
:1010E000970760F4CE010E944C08882341F08C8160
:1010F0009D81892B19F4E881F981108281E0DF91CB
:10110000CF910895EF92FF920F931F93CF93DF93A8
:10111000EC017B018A01BA010E946608811104C0BA
:10112000CE010E943A0807C01D830C83B701888155
:1011300099810E942F0FCE01DF91CF911F910F91C6
:10114000FF90EF900895FC011182108213821282A9
:10115000158214826115710551F0FB010190002088
:10116000E9F73197AF01461B570B0C94820808959D
:10117000CF93DF93EC01FB018617970761F0608145
:1011800071816115710529F0448155810E948208A1
:1011900002C00E943A08CE01DF91CF910895FC0170
:1011A0001182108213821282158214820C94B80864
:1011B000CF93DF93EC016115710559F0FB010190AC
:1011C0000020E9F73197AF01461B570B0E948208B8
:1011D00002C00E943A08CE01DF91CF910895EF92AC
:1011E000FF920F931F93CF93DF936115710511F455
:1011F00080E01CC041155105C1F07B01EC018C81E0
:101200009D818A01080F191FB801CE010E9466084E
:10121000882371F3288139818C819D81B701820FE8
:10122000931F0E942F0F1D830C8381E0DF91CF91CC
:101230001F910F91FF90EF900895FB01448155811C
:10124000608171810C94EF086115710551F0FB010B
:1012500001900020E9F73197AF01461B570B0C9422
:10126000EF0880E00895CF93DF9300D0CDB7DEB7CD
:1012700069831A8241E050E0BE016F5F7F4F0E9498
:10128000EF080F900F90DF91CF910895EF92FF92AA
:101290000F931F93CF93DF93CDB7DEB72E970FB683
:1012A000F894DEBF0FBECDBF7C01CB01BA012AE0AE
:1012B00030E08E010F5F1F4FA8010E94500FF80110
:1012C00001900020E9F73197AF01401B510BB801A5
:1012D000C7010E94EF082E960FB6F894DEBF0FBE2E
:1012E000CDBFDF91CF911F910F91FF90EF900895A7
:1012F000CF93DF93DC01ED91FC91EB01A881B981E3
:10130000309711F01097C9F4109759F0EB012C8128
:101310003D81232B31F08C9190E09195819591093D
:1013200014C0309781F0DC0114968D919C91159733
:10133000892B49F0808190E008C0BD01CF01DF9189
:10134000CF910C94260F80E090E0DF91CF9108952B
:10135000FC0144815581FB012481358142175307EB
:1013600029F40E94780921E0892B09F020E0822FDE
:101370000895FC0124813581232B31F421E061158E
:101380007105A1F0FB0108C0FC018081918161150C
:10139000710531F421E0FC018081882339F005C01A
:1013A0000E94260F21E0892B09F020E0822F08956A
:1013B000CF93DF93FC01248135814217530778F4E2
:1013C000C081D181062E000C770BCE01840F951FB2
:1013D0000E941B0F009719F08C1B9D0B02C08FEF12
:1013E0009FEFDF91CF910895CF93DF93FC0124818C
:1013F00035814217530780F4FB01DC01CD91DC916C
:1014000060817181CE01840F951F0E94360F009775
:1014100019F08C1B9D0B02C08FEF9FEFDF91CF91D6
:10142000089540E050E00C94F409BF92CF92DF920F
:10143000EF92FF920F931F93CF93DF937C016B0189
:101440008A01E9012417350720F4812F8901C42F6F
:10145000D82F6CE671E0C7010E94A308D60114964C
:101460008D919C91159708171907C8F48C179D0743
:1014700008F4EC01D601ED91FC911197EC0FFD1FE2
:10148000B08010826D917C91600F711FC7010E9426
:10149000D808D601ED91FC91EC0FFD1FB082C70179
:1014A000DF91CF911F910F91FF90EF90DF90CF9040
:1014B000BF900895AF92BF92CF92DF92EF92FF92CA
:1014C0000F931F93CF93DF93DC01CD90DC901197A6
:1014D000C114D10409F443C01496CD91DC91159741
:1014E0002097E9F18C0176015701BFEFAB1ABB0AD7
:1014F000F7018081082E000C990B0E94090F892B9F
:1015000011F07501F1CF2197CC0DDD1D8881082EDA
:10151000000C990B0E94090F892B29F0CE15DF05CD
:1015200010F02197F3CFAE014F5F5F4F4E195F0967
:10153000D80115965C934E931497CE14DF0420F4D3
:10154000B701C6010E94120FD801ED91FC911197CD
:1015500014968D919C911597E80FF91F1082DF91D9
:10156000CF911F910F91FF90EF90DF90CF90BF90A0
:10157000AF900895FC0180819181009711F00C9447
:10158000E20E60E070E0CB01089508950E94500BD8
:101590000E94C50A0E947102C1EDD5E00E94D202EC
:1015A0002097E1F30E94D105F9CF1F920F920FB659
:1015B0000F9211242F933F938F939F93AF93BF93D9
:1015C0008091720290917302A0917402B0917502A1
:1015D0003091710223E0230F2D3720F40196A11DD5
:1015E000B11D05C026E8230F0296A11DB11D209351
:1015F00071028093720290937302A0937402B0936D
:1016000075028091760290917702A0917802B09154
:1016100079020196A11DB11D809376029093770205
:10162000A0937802B0937902BF91AF919F918F916F
:101630003F912F910F900FBE0F901F9018952FB7CD
:10164000F89460917202709173028091740290918B
:1016500075022FBF08953FB7F8948091760290915C
:101660007702A0917802B091790226B5A89B05C0B7
:101670002F3F19F00196A11DB11D3FBFBA2FA92F11
:10168000982F8827820F911DA11DB11DBC01CD018E
:1016900042E0660F771F881F991F4A95D1F708957A
:1016A000789484B5826084BD84B5816084BD85B53D
:1016B000826085BD85B5816085BDEEE6F0E0808104
:1016C00081608083E1E8F0E0108280818260808325
:1016D000808181608083E0E8F0E0808181608083A8
:1016E000E1EBF0E0808184608083E0EBF0E08081DA
:1016F00081608083EAE7F0E080818460808380817C
:101700008260808380818160808380818068808323
:101710001092C10008951F93CF93DF93182FEB0110
:1017200061E00E94130C209711F460E004C0CF3FE9
:10173000D10539F461E0812FDF91CF911F910C9495
:101740004F0CE12FF0E0E859FF4FE491E330F9F05E
:1017500048F4E130B9F0E230A1F584B5806284BD8F
:10176000C8BD34C0E730E9F0E83019F1E43049F59C
:1017700080918000806280938000D0938B00C09322
:101780008A0024C084B5806884BDC7BD1FC0809115
:101790008000806880938000D0938900C093880087
:1017A00015C08091B00080688093B000C093B300F2
:1017B0000DC08091B00080628093B000C093B400EF
:1017C00005C0C038D1050CF0B5CFAFCFDF91CF91B8
:1017D0001F910895833081F028F4813099F0823090
:1017E000A1F008958730A9F08830B9F08430D1F4A1
:1017F000809180008F7D03C0809180008F778093DF
:101800008000089584B58F7702C084B58F7D84BD34
:1018100008958091B0008F7703C08091B0008F7DD4
:101820008093B0000895CF93DF9390E0FC01E458DB
:10183000FF4F2491FC01E057FF4F8491882361F111
:1018400090E0880F991FFC01E255FF4FC591D4919C
:10185000FC01EC55FF4FA591B491611109C09FB7F0
:10186000F8948881209582238883EC912E230BC0E5
:10187000623061F49FB7F8948881322F30958323CA
:101880008883EC912E2B2C939FBF06C08FB7F894C2
:10189000E8812E2B28838FBFDF91CF9108951F936E
:1018A000CF93DF93282F30E0F901E859FF4F84915F
:1018B000F901E458FF4FD491F901E057FF4FC4916B
:1018C000CC23C1F0162F81110E94EA0BEC2FF0E01F
:1018D000EE0FFF1FEC55FF4FA591B4919FB7F89401
:1018E000111104C08C91D095D82302C0EC91DE2B4D
:1018F000DC939FBFDF91CF911F910895DB018F9300
:101900009F930E94DB0CBF91AF91A29F800D911D10
:10191000A39F900DB29F900D11240895991B79E01B
:1019200004C0991F961708F0961B881F7A95C9F76F
:1019300080950895A1E21A2EAA1BBB1BFD010DC0C4
:10194000AA1FBB1FEE1FFF1FA217B307E407F5076F
:1019500020F0A21BB30BE40BF50B661F771F881F4B
:10196000991F1A9469F760957095809590959B01E1
:10197000AC01BD01CF010895052E97FB1EF4009424
:101980000E94D30C57FD07D00E949A0C07FC03D08D
:101990004EF40C94D30C50954095309521953F4FC3
:1019A0004F4F5F4F089590958095709561957F4F4B
:1019B0008F4F9F4F08950E94EC0CA59F900DB49FF0
:1019C000900DA49F800D911D11240895EE0FFF1F0F
:1019D0000590F491E02D0994A29FB001B39FC0013E
:1019E000A39F700D811D1124911DB29F700D811D4B
:1019F0001124911D08950F931F93CF93DF9382308D
:101A0000910510F482E090E0E0917C02F0917D027B
:101A100020E030E0A0E0B0E0309719F14081518142
:101A20000281138148175907C8F08417950769F494
:101A3000109731F012960C93129713961C9327C0AF
:101A400000937C0210937D0222C02115310519F00C
:101A50004217530718F49A01BD01EF01DF01F801A5
:101A6000DBCF21153105F9F0281B390B2430310566
:101A700080F48A819B816115710521F0FB019383BC
:101A8000828304C090937D0280937C02FE01329693
:101A900044C0FE01E20FF31F81939193225031095C
:101AA000398328833AC020917A0230917B02232B1C
:101AB00041F4209102013091030130937B02209385
:101AC0007A0220910001309101012115310541F484
:101AD0002DB73EB74091040150910501241B350BF1
:101AE000E0917A02F0917B02E217F307A0F42E1B3B
:101AF0003F0B2817390778F0AC014E5F5F4F241772
:101B0000350748F04E0F5F1F50937B0240937A02D7
:101B10008193919302C0E0E0F0E0CF01DF91CF919B
:101B20001F910F910895CF93DF93009709F481C01F
:101B3000FC01329713821282A0917C02B0917D0247
:101B4000109781F420813181820F931F20917A02B6
:101B500030917B022817390751F5F0937B02E0930F
:101B60007A0267C0ED0120E030E0CE17DF0740F4D5
:101B70004A815B819E0141155105F1F0EA01F5CFE3
:101B8000D383C28340815181840F951FC817D90721
:101B900059F488819981840F951F029691838083DF
:101BA0008A819B81938382832115310529F4F093E7
:101BB0007D02E0937C023DC0E901FB83EA83499109
:101BC0005991C40FD51FEC17FD0761F480819181F5
:101BD000840F951F0296E9019983888382819381FE
:101BE0009B838A83E0E0F0E012968D919C9113979D
:101BF000009719F0FD01DC01F7CF8D919C911197B1
:101C00009D012E5F3F4F820F931F20917A023091EA
:101C10007B022817390769F4309729F410927D0266
:101C200010927C0202C013821282B0937B02A093B6
:101C30007A02DF91CF910895A0E0B0E0E2E2FEE009
:101C40000C94B80FEC01009721F4CB010E94FB0C1F
:101C5000B4C0FC01E60FF71F9C0122503109E217C6
:101C6000F30708F4A8C0D9010D911C91119706172C
:101C70001707B0F00530110508F49BC0C8010497A0
:101C80008617970708F495C002501109061B170B19
:101C9000019311936D937C93CF010E94930D89C0A2
:101CA0005B01A01AB10A4C01800E911EA0917C022A
:101CB000B0917D02612C712CE12CF12C109709F46C
:101CC00046C08D919C911197A815B905B1F56C018D
:101CD00042E0C40ED11CCA14DB0478F14C018A180E
:101CE0009B08640142E0C40ED11C1296BC9012976E
:101CF0001396AC91B5E0CB16D10440F0B282A38329
:101D000091828082D9016D937C9309C00E5F1F4F31
:101D1000800F911FF90191838083EB2DFA2FE1143D
:101D2000F10431F0D7011396FC93EE93129741C062
:101D3000F0937D02E0937C023CC06816790608F4BB
:101D40003C017D0112960D90BC91A02DB7CF8091E2
:101D50007A0290917B0288169906E1F4661677065E
:101D6000C8F48091000190910101009741F48DB772
:101D70009EB74091040150910501841B950BE81713
:101D8000F907C8F4F0937B02E0937A02F9017183BA
:101D900060830FC0CB010E94FB0C7C01009759F0BF
:101DA000A801BE010E94120FCE010E94930DC7012F
:101DB00004C0CE0102C080E090E0CDB7DEB7EEE017
:101DC0000C94D40F1F93FC0199278827BC01E89439
:101DD00011911032E9F3193010F01E30C8F31B32A4
:101DE00051F01D3249F4689406C00E946A0F610FD9
:101DF000711D811D911D119110531A30B0F33EF4E5
:101E000090958095709561957F4F8F4F9F4F1F9153
:101E1000089591110C94A10F803219F089508550CA
:101E2000C8F70895FB01DC0102C001900D924150FA
:101E30005040D8F70895FC018191861721F088233E
:101E4000D9F7992708953197CF010895FB01DC0157
:101E50008D91019080190110D9F3990B0895FB0120
:101E6000DC0101900D920020E1F70895FB015191F2
:101E70005523A9F0BF01DC014D9145174111E1F750
:101E800059F4CD010190002049F04D9140154111C8
:101E9000C9F3FB014111EFCF81E090E00197089574
:101EA0002532310520F4223010F00C945B0FFA013A
:101EB0001082CA010895BB272A3051F4992342F4B5
:101EC000BDE290958095709561957F4F8F4F9F4FA4
:101ED0000C94800F592F482F372F262F660F771F0E
:101EE000881F991F660F771F881F991F620F731F26
:101EF000841F951F660F771F881F991F0895BB27A2
:101F0000FA01A62F6217710581059105330B30FB8D
:101F100066F0AA27660F771F881F991FAA1FA217AE
:101F200010F0A21B63953850A9F7A05DAA3308F002
:101F3000A95DA19336F7B111B1931082CA010C9437
:101F4000A40F992788270895DC01FC01672F719160
:101F50007723E1F7329704C07C916D93708362918F
:101F6000AE17BF07C8F308952F923F924F925F922A
:101F70006F927F928F929F92AF92BF92CF92DF9299
:101F8000EF92FF920F931F93CF93DF93CDB7DEB7FE
:101F9000CA1BDB0B0FB6F894DEBF0FBECDBF099492
:101FA0002A88398848885F846E847D848C849B84E9
:101FB000AA84B984C884DF80EE80FD800C811B81F7
:101FC000AA81B981CE0FD11D0FB6F894DEBF0FBE26
:101FD000CDBFED01089510E0CEE5D0E004C0FE01D4
:101FE0000E94E60C2196CF35D107C9F7F894FFCFB0
:101FF00000007E02800061740064740073006C0055
:102000006400747275650066616C736500496E707A
:1020100075743A20000A45786563757465643A20E2
:10202000000A44656C74612074696D653A20000A89
:10203000436F6D6D616E647320696E207365636FAD
:102040006E64733A20000A2D2D2D2D2D2D2D2D2D52
:102050002D2D2D2D2D2D2D2D2D2D2D0A000A496EC6
:1020600076616C696420636F6D6D616E6421000040
:1020700000000001066407C2054E069405AE05A0E7
:02208000050059
:00000001FF
